{"abi":[{"type":"function","name":"verify","inputs":[{"name":"proof","type":"bytes","internalType":"bytes"},{"name":"publicInputs","type":"bytes32[]","internalType":"bytes32[]"}],"outputs":[{"name":"","type":"bool","internalType":"bool"}],"stateMutability":"view"},{"type":"error","name":"ProofLengthWrong","inputs":[]},{"type":"error","name":"PublicInputsLengthWrong","inputs":[]},{"type":"error","name":"ShpleminiFailed","inputs":[]},{"type":"error","name":"SumcheckFailed","inputs":[]}],"bytecode":{"object":"0x60e0604052348015600e575f5ffd5b505f608081905260a081905260c0819052808061514c61005082395f61057101525f818161061d01528181610bf60152610c9201525f61051a015261514c5ff3fe608060405234801561000f575f5ffd5b5060043610610029575f3560e01c8063ea50d0e41461002d575b5f5ffd5b61004061003b366004614d55565b610054565b604051901515815260200160405180910390f35b5f6100626101b86020614e31565b8414610081576040516376ba560560e11b815260040160405180910390fd5b5f61008a610198565b90505f61009787876101ad565b604083015190915084146100be5760405163fa06659360e01b815260040160405180910390fd5b5f6100d5828787865f015187604001516001610455565b90506101238686808060200260200160405190810160405280939291908181526020018383602002808284375f92019190915250508451606081015160809091015190925090506001610504565b815160a001525f6101348383610615565b905080610154576040516313f8744360e31b815260040160405180910390fd5b5f610160848685610716565b905080610180576040516352ec174560e11b815260040160405180910390fd5b81801561018a5750805b9a9950505050505050505050565b6101a0614539565b6101a8610f8a565b905090565b6101b56148b7565b6101ca6101c560805f8587614e48565b61156b565b81526101de6101c561010060808587614e48565b60208201526101f66101c56101806101008587614e48565b604082015261020e6101c56102006101808587614e48565b60a08201526102266101c56102806102008587614e48565b60c082015261023e6101c56103006102808587614e48565b60608201526102566101c56103806103008587614e48565b60e082015261026e6101c56104006103808587614e48565b60808201526104005f5b601c811015610305575f5b60088110156102fc576102af86848761029d826020614e6f565b926102aa93929190614e48565b61165f565b84610100015183601c81106102c6576102c6614e82565b602002015182600881106102dc576102dc614e82565b6020020181815250506020836102f29190614e6f565b9250600101610283565b50600101610278565b505f5b60288110156103595761032285838661029d826020614e6f565b836101200151826028811061033957610339614e82565b60200201818152505060208261034f9190614e6f565b9150600101610308565b505f5b6103686001601c614e96565b8110156103be5761038d858386610380826080614e6f565b926101c593929190614e48565b83610140015182601b81106103a4576103a4614e82565b60200201526103b4608083614e6f565b915060010161035c565b505f5b601c811015610412576103db85838661029d826020614e6f565b83610160015182601c81106103f2576103f2614e82565b6020020181815250506020826104089190614e6f565b91506001016103c1565b50610424848285610380826080614e6f565b610180830152610435816080614e6f565b9050610448848285610380826080614e6f565b6101a08301525092915050565b61045d614aaa565b5f61046d888888888888876116bb565b908352905061047c818961173c565b6020840191909152905061048f816118d7565b604084019190915290506104a38882611938565b606084019190915290506104b78882611a0c565b608084019190915290506104cb8882611a97565b60a084019190915290506104df8882611c05565b60c084019190915290506104f38882611c77565b5060e0830152509695505050505050565b5f6001808261054d866105488961054361053e8a7f0000000000000000000000000000000000000000000000000000000000000000614e6f565b611cce565b611cec565b611d05565b90505f61056b876105668a61054361053e8b6001614e6f565b611d1e565b90505f5b7f00000000000000000000000000000000000000000000000000000000000000008110156105fd575f6105ba8b83815181106105ad576105ad614e82565b6020026020010151611cce565b90506105ca866105438684611d05565b95506105da856105438584611d05565b94506105e6848b611d05565b93506105f2838b611d1e565b92505060010161056f565b506106088484611d4d565b9998505050505050505050565b5f806001815b7f00000000000000000000000000000000000000000000000000000000000000008110156106ec575f86610100015182601c811061065b5761065b614e82565b602002015190505f61066d8286611d5b565b90508061068d576040516313f8744360e31b815260040160405180910390fd5b5f876060015184601c81106106a4576106a4614e82565b602002015190506106b58382611d78565b95506106dc886040015185601c81106106d0576106d0614e82565b60200201518683611f27565b945050505080600101905061061b565b505f610706866101200151865f0151876020015185611f52565b90508281145b9695505050505050565b5f61075d6040518061012001604052805f81526020015f81526020015f81526020015f81526020015f81526020015f81526020015f81526020015f81526020015f81525090565b5f61076b8460a00151611fc0565b9050610775614b2e565b61077d614b4d565b60e086015161079c9061079790855f5b6020020151611d1e565b612025565b60a085015260e08601516107bb9061079790855f5b6020020151611d05565b60c080860182905260a0860151908801516107da926105489190611cec565b845260a0860151610808906107ee90612025565b6105438660a001516105668a60c001518960c00151611cec565b6020850152600182526101808801516108209061208e565b81526001606085018190525f60808601525b602381116108d857610853610849865f01516120d8565b8660600151611cec565b83826046811061086557610865614e82565b602002015260808501516101208a01516108a8919061054890610889600186614e96565b6028811061089957610899614e82565b60200201518860600151611cec565b8560800181815250506108c385606001518860800151611cec565b60608601526108d181614ea9565b9050610832565b505f6108e660236001614e6f565b90505b602881116109675761090161084986602001516120d8565b83826046811061091357610913614e82565b602002015260808501516101208a0151610937919061054890610889600186614e96565b85608001818152505061095285606001518860800151611cec565b606086015261096081614ea9565b90506108e9565b50606087015181600160200201526080870151816002602002015260a0870151816003602002015260c0870151816004602002015260e0870151816005602002015261010087015181600660200201526101208701518160076020020152610140870151816008602002015261016087015181600960200201526101a087015181600a602002015261018087015181600b60200201526101c087015181600c60200201526101e087015181600d602002015261020087015181600e602002015261022087015181600f60200201526102408701518160106020020152610260870151816011602002015261028087015181601260200201526102a087015181601360200201526102c087015181601460200201526102e08701518160156020020152610300870151816016602002015261032087015181601760200201526103408701518160186020020152610360870151816019602002015261038087015181601a60200201526103a087015181601b60200201528751610ae89061208e565b6103808201526020880151610afc9061208e565b6103a08201526040880151610b109061208e565b6103c08201526060880151610b249061208e565b6103e08201526080880151610b389061208e565b61040082015260e0880151610b4c9061208e565b61042082015260a0880151610b609061208e565b61044082015260c0880151610b749061208e565b6104608201528751610b859061208e565b6104808201526020880151610b999061208e565b6104a08201526040880151610bad9061208e565b6104c08201526060880151610bc19061208e565b6104e08201526080880151610bd59061208e565b610500820152606086015160808501516101608a01515f92610c1a929091877f00000000000000000000000000000000000000000000000000000000000000006120f0565b805160a0870151919250610c2d91611cec565b604086018190526101608a01515160c0890151610c5d929161054891610c539190611cec565b8860c00151611cec565b604086015260c0870151610c709061220b565b60608601525f5b610c836001601c614e96565b811015610e85575f610cb660017f0000000000000000000000000000000000000000000000000000000000000000614e96565b821015905080610e2b57610ce96107978a60e0015188856001610cd99190614e6f565b601c811061078d5761078d614e82565b60a088015260e0890151610d17906107979088610d07866001614e6f565b601c81106107b1576107b1614e82565b60c0880152606087015160a0880151610d309190611cec565b60e0880152606087015160c08a0151610d4c91610c5391611cec565b6101008801819052610d6e90610d61906120d8565b6105488960e001516120d8565b8583610d7c60286001614e6f565b610d869190614e6f565b60468110610d9657610d96614e82565b60200201526101008701516101608c01515f91610dd291610db8866001614e6f565b601c8110610dc857610dc8614e82565b6020020151611cec565b9050610dee816105488a60e0015187876001610db89190614e6f565b9050610dfe886040015182611d05565b6040890152606088015160c08b0151610e2491610e1a91611cec565b8b60c00151611cec565b6060890152505b610e4f8b610140015183601b8110610e4557610e45614e82565b602002015161208e565b8483610e5d60286001614e6f565b610e679190614e6f565b60468110610e7757610e77614e82565b602002015250600101610c77565b5060408051808201909152600181526002602082015282610ea8601c6028614e6f565b60468110610eb857610eb8614e82565b6020020152604085015183610ecf601c6028614e6f565b60468110610edf57610edf614e82565b60200201526101a08901515f90610ef59061208e565b90508083610f05601c6028614e6f565b610f10906001614e6f565b60468110610f2057610f20614e82565b602002015260e088015184610f37601c6028614e6f565b610f42906001614e6f565b60468110610f5257610f52614e82565b60200201525f610f628486612216565b90505f610f6e836122e7565b9050610f7a828261235e565b9c9b505050505050505050505050565b610f92614539565b50604080516103c0810182525f8082526020808301829052828401829052835180850185528281528082018390526060840152835180850185527f159cd57cad1024ad483357c9fdfd4f45918deb4a301c6aecfe245a34be796ad181527f0ba6ca81a70b26ad4ff034fffdfd4f54206d9f469e8adde587bee7d24f0605728183015260808401528351808501855278070000000100000101f0cfe3370100000008d0e3370100000081527f08d0e3370100000010d0e3370100000028d0e3370100000028d0e337010000008183015260a08401528351808501855282815280820183905260c0840152835180850185528281527f1ffa46513e9cbfacab5f7492fcfd4f44f0fd2add2f1c6b6587bee7d24f0605728183015260e08401528351808501855282815264c06c54040160981b81830152610100840152835180850185527f087294c41fce5fd647afba497e7ea7a2687e956e978e3572c3df73e9278302b9815264010000000160981b818301526101208401528351808501855264a8d6e3370160581b815264c0d6e3370160981b81830152610140840152835180850185527420cde33701000000f86d54040100000079a2c06d0160581b81527f1745a96b7c397f591ebee925f9fa9e89a1fa55ba5e38d5cb0f7dcfa49e0c0ae48183015261016084015283518085018552828152808201839052610180840152835180850185526501000000000081526001607b1b818301526101a08401528351808501855261080081527f2e2f7461726765742f766b0000000000000000000000000b0000000000000000818301526101c0840152835180850185527f1f0c25f68e3cd2d647afba497e7ea7a2687e956e978e3579c3df73ea278302b98082527f1f33a96b7c397f5a1783cc5cfafa9e8a9abf38f15f38d5cb303eb2db9f0c0ae4828401526101e0850191909152845180860186527f085c94c41fce5fd680709d807f7ea7a2687e956e978e3572c3df73e9278302b98152808301849052610200850152845180860186528381526fc0d9e337010000004a0000000000000081840152610220850152845180860186527f1f9bb18d1ece605647afba497e7ea7a2687e956e978e3572c3df73e9278302b9815267c06c54040100000081840152610240850152845180860186526f80cae33701000000086f54040100000081527f1fda23873e9cbfac8f5f7492fcfd4f45b9d60e14301c6ae588bee7d25006057281840152610260850152845180860186527f010000000100000010dae3370100000070dae3370100000070dae3370100000081527f087594c41fce5fd647afba497e7ea7a2687e956e978e357314b95720288302b981840152610280850152845180860186526f20cde33701000000886e54040100000081527f1fda23873e9cbfac8f5f7492fcfd4f4539d70e14301c6ae587bee7d24f060572818401526102a0850152845180860186528381527401000000005061746820435253206469726563746f818401526102c0850152845180860186527f11b0913a8b06331ff8cddbb3404fa26537669742a23ce24ef42b0834b42677d781527f13a9cc7fb40223ccf5d1e4001d71b7a9f1669951948ed94afbece7d24f060572818401526102e0850152845180860186526740c2e3370100000081527f06d01a387c397f591ebee925f9fa9e89a1fa55ba5e38d5cb4058b2db9f0c0ae4818401526103008501528451808601865267ffffffff010100008152808301849052610320850152845180860186528381527e6c94c41fce5fd708829d807f7ea7a2a95478a5988e357394b75720288302b981840152610340850152845180860186527f2f49a96b7c397f591ebee925f9fa9e89a1fa55ba5e38d5cb0f7dcfa49e0c0ae4815280830191909152610360840152835180850185527f20d2e3370100000038d2e3370100000038d2e3370100000030dde3370100000081527f187994c41fce5fd6908d9d807f7ea7a2687e956e978e3572c3df73e9278302b98183015261038084015283518085019094528184528301526103a081019190915290565b61159260405180608001604052805f81526020015f81526020015f81526020015f81525090565b608082146115dd5760405162461bcd60e51b81526020600482015260136024820152721a5b9d985b1a5908189e5d195cc81c1bda5b9d606a1b60448201526064015b60405180910390fd5b6040805160808101909152806115f660205f8688614e48565b6115ff91614ec1565b8152602090810190611615906040908688614e48565b61161e91614ec1565b8152602001611631606060408688614e48565b61163a91614ec1565b815260200161164d608060608688614e48565b61165691614ec1565b90529392505050565b5f602082146116a75760405162461bcd60e51b815260206004820152601460248201527334b73b30b634b210313cba32b99039b1b0b630b960611b60448201526064016115d4565b6116b461053e8385614ec1565b9392505050565b6116ee6040518060c001604052805f81526020015f81526020015f81526020015f81526020015f81526020015f81525090565b5f6116fd898989898989612562565b60408601919091526020850191909152908352925061171c838a612985565b608085019190915260608401919091529199919850909650505050505050565b611744614b86565b5f61174d614ba5565b84815260e0848101805151602080850191909152815181015160408086019190915282518101516060808701919091529251830151608080870191909152880180515160a0870152805183015160c087015280518201519486019490945292519091015161010084015290516117e4916117c991849101614ede565b60405160208183030381529060405280519060200120611cce565b91506117ef82612a50565b6020850152835260015b61180560026019614f26565b81101561188557611822836040516020016117c991815260200190565b925061182d83612a50565b85611839846002614e31565b6019811061184957611849614e82565b6020020186611859856002614e31565b611864906001614e6f565b6019811061187457611874614e82565b6020020191909152526001016117f9565b5061189c826040516020016117c991815260200190565b91505f6118a883612a50565b856118b560016019614e96565b601981106118c5576118c5614e82565b60200201919091525050509250929050565b6118df614bc4565b5f805b601c81101561193157611901846040516020016117c991815260200190565b93505f61190d85612a50565b8584601c811061191f5761191f614e82565b602002019190915250506001016118e2565b5090929050565b611940614bc4565b5f805b601c811015611a0357611954614ba5565b8481525f5b60088110156119bd5786610100015183601c811061197957611979614e82565b6020020151816008811061198f5761198f614e82565b6020020151826119a0836001614e6f565b600981106119b0576119b0614e82565b6020020152600101611959565b506119d2816040516020016117c99190614ede565b94505f6119de86612a50565b8685601c81106119f0576119f0614e82565b6020020191909152505050600101611943565b50909391925050565b5f5f611a16614be3565b8381525f5b6028811015611a69578561012001518160288110611a3b57611a3b614e82565b602002015182611a4c836001614e6f565b60298110611a5c57611a5c614e82565b6020020152600101611a1b565b50611a7e816040516020016117c99190614f39565b91505f611a8a83612a50565b5096929550919350505050565b5f5f611aa1614c02565b8381525f5b611ab26001601c614e96565b811015611bf05785610140015181601b8110611ad057611ad0614e82565b60200201515182611ae2836004614e31565b611aed906001614e6f565b606d8110611afd57611afd614e82565b602002015261014086015181601b8110611b1957611b19614e82565b60200201516020015182826004611b309190614e31565b611b3b906002614e6f565b606d8110611b4b57611b4b614e82565b602002015261014086015181601b8110611b6757611b67614e82565b60200201516040015182611b7c836004614e31565b611b87906003614e6f565b606d8110611b9757611b97614e82565b602002015261014086015181601b8110611bb357611bb3614e82565b60200201516060015182611bc8836004614e31565b611bd3906004614e6f565b606d8110611be357611be3614e82565b6020020152600101611aa6565b50611a7e816040516020016117c99190614f6d565b5f5f611c0f614c21565b8381525f5b601c811015611c625785610160015181601c8110611c3457611c34614e82565b602002015182611c45836001614e6f565b601d8110611c5557611c55614e82565b6020020152600101611c14565b50611a7e816040516020016117c99190614fa1565b5f5f611c81614c40565b83815261018085018051516020808401919091528151810151604080850191909152825181015160608086019190915292519092015160808401529051611a7e916117c991849101614fd5565b5f611ce65f5160206150f75f395f51905f5283615008565b92915050565b5f5f5160206150f75f395f51905f528284099392505050565b5f5f5160206150f75f395f51905f528284089392505050565b5f5f5160206150f75f395f51905f52611d44835f5160206150f75f395f51905f52614e96565b84089392505050565b5f6116b48361054384612025565b81515f908190611d6d908560016107b1565b929092149392505050565b60408051610100810182527f30644e72e131a029b85045b68181585d2833e84879b9709143e1f593efffec5181526102d060208201527f30644e72e131a029b85045b68181585d2833e84879b9709143e1f593efffff1191810191909152609060608201527f30644e72e131a029b85045b68181585d2833e84879b9709143e1f593efffff71608082015260f060a08201527f30644e72e131a029b85045b68181585d2833e84879b9709143e1f593effffd3160c08201526113b060e08201525f906001825b6008811015611e5f57611e55826105438784611d1e565b9150600101611e3e565b50611e68614c5e565b5f5b6008811015611ec9575f848260088110611e8657611e86614e82565b60200201519050611e9b816105438985611d1e565b9050611ea681612025565b905080838360088110611ebb57611ebb614e82565b602002015250600101611e6a565b505f5b6008811015611f1c575f878260088110611ee857611ee8614e82565b60200201519050611f0581848460088110610dc857610dc8614e82565b9050611f118682611d05565b955050600101611ecc565b5061070c8483611cec565b5f5f611f3d600161054885610543896001611d1e565b9050611f498482611cec565b95945050505050565b5f611f5b614c7d565b611f66868285612a89565b611f7286868386612c35565b611f7e86868386612e1d565b611f89868285613019565b611f94868285613201565b611fa08686838661354a565b611fab868285613de4565b611fb68682856141af565b61070c81856144a4565b611fc8614bc4565b81815260015b601c81101561201f5761200082611fe6600184614e96565b601c8110611ff657611ff6614e82565b602002015161220b565b8282601c811061201257612012614e82565b6020020152600101611fce565b50919050565b5f5f8290505f604051602081526020808201526020604082015282606082015260025f5160206150f75f395f51905f520360808201525f5160206150f75f395f51905f5260a082015260205f60c08360055afa905080612083575f5ffd5b50505f519392505050565b604080518082019091525f8082526020820152604051806040016040528060888460200151901b845f015117815260200160888460600151901b8460400151178152509050919050565b5f611ce6825f5160206150f75f395f51905f52614e96565b6120f8614bc4565b601c5b8015612201575f8461210e600184614e96565b601c811061211e5761211e614e82565b602002015190505f88612132600185614e96565b601c811061214257612142614e82565b602002015190505f61219d61216161215a858c611cec565b6002611cec565b6105668a612170600189614e96565b601c811061218057612180614e82565b60200201516105436121978861054360018a611d1e565b87611d1e565b90506121be816105436107976121b887610543600189611d1e565b86611d05565b90508584116121ed5797508780856121d7600187614e96565b601c81106121e7576121e7614e82565b60200201525b505050806121fa9061501b565b90506120fb565b5095945050505050565b5f611ce68283611cec565b604080518082019091525f80825260208201525f612236601c6028614e6f565b612241906002614e6f565b90506001604051855151604082015285516020015160608201528451608082015260408160606040840160075afa8216915060015b838110156122cf5760208102870160208202870181515160408501528151602001516060850152805160808501525050604080830160606040850160075afa8316925060408260808460065afa90921691600101612276565b50805184526020810151602085015250505092915050565b604080518082019091525f80825260208201527f30644e72e131a029b85045b68181585d97816a916871ca8d3c208c16d87cfd4782602001517f30644e72e131a029b85045b68181585d97816a916871ca8d3c208c16d87cfd4761234b9190614e96565b6123559190615008565b60208301525090565b81516020808401518351848301516040805194850195909552938301919091527f198e9393920d483a7260bfb731fb5d25f1aa493335a9e71297e485b7aef312c260608301527f1800deef121f1e76426a00665e5c4479674322d4f75edadd46debd5cd992f6ed60808301527f090689d0585ff075ec9e99ad690c3395bc4b313370b38ef355acdadcd122975b60a08301527f12c85ea5db8c6deb4aab71808dcb408fe3d1e7690c43d37b4ce6cc0166fa7daa60c083015260e08201526101008101919091527f260e01b251f6f1c7e7ff4e580791dee8ea51d87a358e038b4efe30fac09383c16101208201527f0118c4d5b837bcc2bc89b5b398b5974e9f5944073b32078b7e231fec938883b06101408201527f04fc6369f7110fe3d25156c1bb9a72859cf2a04641f99ba4ee413c80da6a5fe46101608201527f22febda3c0c0632a56475b4214e5615e11e6dd3f96e6cea2854a87d4dacc5e556101808201525f9081906101a00160405160208183030381529060405290505f5f60086001600160a01b0316836040516124f49190615030565b5f60405180830381855afa9150503d805f811461252c576040519150601f19603f3d011682016040523d82523d5f602084013e612531565b606091505b50915091505f8180602001905181019061254b9190615046565b90508280156125575750805b979650505050505050565b5f80808080612572876003614e6f565b61257d90600c614e6f565b67ffffffffffffffff81111561259557612595615065565b6040519080825280602002602001820160405280156125be578160200160208202803683370190505b509050875f1b815f815181106125d6576125d6614e82565b602002602001018181525050865f1b816001815181106125f8576125f8614e82565b602002602001018181525050855f1b8160028151811061261a5761261a614e82565b60209081029190910101525f5b87811015612679578a8a8281811061264157612641614e82565b90506020020135828260036126569190614e6f565b8151811061266657612666614e82565b6020908102919091010152600101612627565b508a515181612689896003614e6f565b8151811061269957612699614e82565b6020908102919091018101919091528b510151816126b8896003614e6f565b6126c3906001614e6f565b815181106126d3576126d3614e82565b60209081029190910101528a5160400151816126f0896003614e6f565b6126fb906002614e6f565b8151811061270b5761270b614e82565b60209081029190910101528a516060015181612728896003614e6f565b612733906003614e6f565b8151811061274357612743614e82565b6020908102919091018101919091528b01515181612762896003614e6f565b61276d906004614e6f565b8151811061277d5761277d614e82565b6020908102919091018101919091528b81015101518161279e896003614e6f565b6127a9906005614e6f565b815181106127b9576127b9614e82565b6020908102919091018101919091528b015160400151816127db896003614e6f565b6127e6906006614e6f565b815181106127f6576127f6614e82565b6020908102919091018101919091528b01516060015181612818896003614e6f565b612823906007614e6f565b8151811061283357612833614e82565b602090810291909101015260408b01515181612850896003614e6f565b61285b906008614e6f565b8151811061286b5761286b614e82565b60209081029190910181019190915260408c015101518161288d896003614e6f565b612898906009614e6f565b815181106128a8576128a8614e82565b60209081029190910101526040808c01510151816128c7896003614e6f565b6128d290600a614e6f565b815181106128e2576128e2614e82565b602090810291909101015260408b01516060015181612902896003614e6f565b61290d90600b614e6f565b8151811061291d5761291d614e82565b60200260200101818152505061293d816040516020016117c99190615079565b915061294882612a50565b604080516020810186905292975090955061296391016117c9565b91505f61296f83612a50565b50959c949b509499509097509195505050505050565b5f5f5f612990614c9c565b85815260a0858101805151602080850191909152815181015160408086019190915282518101516060808701919091529251830151608086015260c0808a0180515195870195909552845183015190860152835181015160e086015292518201516101008501528188018051516101208601528051820151610140860152805184015161016086015251909101516101808401529051612a36916117c9918491016150ae565b9150612a4182612a50565b90979096509194509092505050565b5f80826fffffffffffffffffffffffffffffffff8116608082901c612a7482611cce565b9450612a7f81611cce565b9350505050915091565b5f612a95846007614509565b90507f183227397098d014dc2822db40c0ac2e9419f4243cdcb848a1f0fac9f80000005f612af6612af0612aca856003611d1e565b610543612ae5612ada8b5f614509565b6105438c601c614509565b6105438b601b614509565b83611cec565b9050612b77612b6c612b53612b3a612b2185610548612b168d6002614509565b6105438e601b614509565b610548612b2f8c6003614509565b6105438d601c614509565b610548612b488b6004614509565b6105438c601d614509565b610548612b618a6005614509565b6105438b601e614509565b610548886001614509565b9050612b9681610548612b8b866001611d1e565b6105438a6026614509565b9050612ba28184611cec565b9050612bae8185611cec565b8552505f9050612be8612bde612bd3612bc888601b614509565b61054889601e614509565b610566886023614509565b610548875f614509565b9050612bf981610543846002611d1e565b9050612c0a81610543846001611d1e565b9050612c168183611cec565b9050612c228184611cec565b9050808460015b60200201525050505050565b5f5f5f612c6b612c61612c4989601b614509565b610548612c578b6011614509565b8a60600151611cec565b8760800151611d05565b9050612ca481610543612c9a612c828b601c614509565b610548612c908d6012614509565b8c60600151611cec565b8960800151611d05565b9050612cc981610543612c9a612cbb8b601d614509565b610548612c908d6013614509565b9050612cee81610543612c9a612ce08b601e614509565b610548612c908d6014614509565b92505f9050612d12612c61612d0489601b614509565b610548612c578b600d614509565b9050612d3781610543612c9a612d298b601c614509565b610548612c908d600e614509565b9050612d5c81610543612c9a612d4e8b601d614509565b610548612c908d600f614509565b9050612d8181610543612c9a612d738b601e614509565b610548612c908d6010614509565b91505f9050612da8612da2612d9789601f614509565b6105488a6019614509565b84611cec565b9050612ddd81610566612dd7612dbf8b6027614509565b610548612dcd8d601a614509565b8c60a00151611cec565b85611cec565b9050612de98185611cec565b6040860152505f612e0c612dd7612e0189601a614509565b6105438a6027614509565b606090950194909452505050505050565b5f5f612e7b612e63612e4b612e36612c9a8a6015614509565b610548612e448b6016614509565b8a51611cec565b610548612e598a6017614509565b8960200151611cec565b610548612e71896018614509565b8860400151611cec565b91505f612eb2612e99612e8f89601b614509565b8860800151611d05565b610548612ea78a6003614509565b6105438b6023614509565b90505f612edb612ec389601c614509565b610548612ed08b5f614509565b6105438c6024614509565b90505f612f05612eec8a601d614509565b610548612efa8c6001614509565b6105438d6025614509565b9050612f44612f2c612f1e85610548868d5f0151611cec565b610548848c60200151611cec565b610548612f3a8c6004614509565b8b60400151611cec565b93505050505f612f58612da2886020614509565b90505f612f69612da2896020614509565b90505f612fa1612f88612f7d8b6022614509565b6105488c6006614509565b610566612f968c6022614509565b6105438d6006614509565b90505f612fc5612fbf612fb48789611cec565b6105438d6020614509565b83611d1e565b9050612fd18188611cec565b90505f612ff9612feb612fe58d6006614509565b87611cec565b610566612fe58e6021614509565b60808a018390529050808960055b60200201525050505050505050505050565b5f6130255f6001611d1e565b90505f6130335f6002611d1e565b90505f6130415f6003611d1e565b90505f61305d61305288601c614509565b61056689601b614509565b90505f61307961306e89601d614509565b6105668a601c614509565b90505f61309561308a8a601e614509565b6105668b601d614509565b90505f6130b16130a68b6023614509565b6105668c601e614509565b9050836130c281610543818b611d05565b90506130d281610543878a611d05565b90506130e2816105438789611d05565b90506130f3816105438d6008614509565b90506130ff818a611cec565b60c08b0152508261311481610543818b611d05565b905061312481610543868a611d05565b9050613134816105438689611d05565b9050613145816105438d6008614509565b9050613151818a611cec565b60e08b0152508161316681610543818b611d05565b905061317681610543858a611d05565b9050613186816105438589611d05565b9050613197816105438d6008614509565b90506131a3818a611cec565b6101008b015250806131b981610543818b611d05565b90506131c981610543848a611d05565b90506131d9816105438489611d05565b90506131ea816105438d6008614509565b90506131f6818a611cec565b9050808a6009613007565b61323a6040518060e001604052805f81526020015f81526020015f81526020015f81526020015f81526020015f81526020015f81525090565b61324584601c614509565b815261325284601d614509565b6020820152613262846023614509565b6040820152613272846026614509565b6060820152613282846025614509565b6080820152613292846024614509565b60a08201525f6132a3856002614509565b90505f6132b0865f614509565b90505f6132c48460400151855f0151611d1e565b90505f6132d985602001518660200151611cec565b606086015190915086905f906132ef9080611cec565b90505f61330d61330789602001518a60600151611cec565b88611cec565b90505f61332c6133258a60a001518b60400151611d05565b8a51611d05565b905061333b612fe58288611cec565b905061336261335c6133566133508487611d1e565b88611d1e565b84611d05565b83611d05565b905061338a61337f6133748387611cec565b6105438f6009614509565b61054360018a611d1e565b6101408c015250505050602085015160808601515f916133a991611d05565b90505f6133c76133bd886060015188611cec565b8860200151611d1e565b90505f6133eb6133d78487611cec565b610548612dd78b60a001518c5f0151611d1e565b90506134136134086133fd838c611cec565b6105438e6009614509565b610543600189611d1e565b6101608b0152505f9150613434905061342d836011611d05565b8751611cec565b90505f6134418384611d05565b905061344d8182611d05565b90505f61345b836009611cec565b905061348461347e612da26134778b60a001518c5f0151611d05565b8b51611d05565b82611d1e565b60c089018190525f9061349f9061330790613374908d611cec565b90506134b28b600a602002015182611d05565b6101408c0152505086515f92506134d9915061342d906134d29080611d05565b8851611d05565b90505f6135196134f4836105438a5f01518b60a00151611d1e565b6020890151610566906135079080611d05565b6105438b602001518c60800151611d05565b905061353689600b6020020151610548613307613374858d611cec565b89600b602002015250505050505050505050565b6135de604051806102c001604052805f81526020015f81526020015f81526020015f81526020015f81526020015f81526020015f81526020015f81526020015f81526020015f81526020015f81526020015f81526020015f81526020015f81526020015f81526020015f81526020015f81526020015f81526020015f81526020015f81526020015f81526020015f81525090565b6136136135fa6135ef87601b614509565b610543886024614509565b610548613608886023614509565b61054389601c614509565b815261365861364d61363461362988601b614509565b61054389601e614509565b61054861364289601c614509565b6105438a601d614509565b610566876025614509565b6040820181905261366d90600160441b611cec565b6040820181905261368390610566876026614509565b6040820181905281516136969190611d05565b604082018190526136ac90610543876005614509565b604082015280516136c190600160441b611cec565b8082526136e1906105486136d6886023614509565b610543896024614509565b808252602082018190526136fd90610566612bc888601d614509565b6020820181905261371390610543876004614509565b60208201528051606082018190526137309061054887601e614509565b6060820181905261375490610566613749886025614509565b610548896026614509565b6060820181905261376990610543875f614509565b8160600181815250505f61379261378883602001518460400151611d05565b8360600151611d05565b90506137a381610543886003614509565b90506137bb6137b3876024614509565b614000611cec565b608083018190526137d190610548886023614509565b608083018190526137e490614000611cec565b608083018190526137fa9061054888601d614509565b6080830181905261380d90614000611cec565b608083018190526138239061054888601c614509565b6080830181905261383690614000611cec565b6080830181905261384c9061054888601b614509565b608083018190526138629061056688601e614509565b6080830181905261387890610543886005614509565b608083015261388b6137b3876025614509565b60a083018190526138a190610548886024614509565b60a083018190526138b490614000611cec565b60a083018190526138ca90610548886023614509565b60a083018190526138dd90614000611cec565b60a083018190526138f39061054888601e614509565b60a0830181905261390690614000611cec565b60a0830181905261391c9061054888601d614509565b60a0830181905261393290610566886026614509565b60a0830181905261394790610543885f614509565b60a0830181905260808301515f9161395f9190611d05565b905061397081610543896004614509565b905061398a61398088601d614509565b8760400151611cec565b60c084018190526139a390610548612e598a601c614509565b60c084018190526139c3906105486139bc8a601b614509565b8951611cec565b60c084018190526139d990610548896001614509565b60c0840181905260e084018190526139f69061056689601e614509565b60c0840152613a09613052886023614509565b610140840152613a28613a1d886026614509565b61056689601e614509565b610120840152610140830151613a4d90613a429080611cec565b846101400151611d1e565b610280840152610140830151613a8f90613a8490613a7d9061054360015f5160206150f75f395f51905f52614e96565b6001611d05565b846101200151611cec565b6101608401819052613ac690613ab890610543613aad8b6002614509565b6105438c6003614509565b610543612fe58a600a614509565b6101a0860152610280830151613ae890613ab890610543613aad8b6002614509565b6101c086015260c0830151613b1090610543613b058a6002614509565b6105438b6003614509565b6101e08401525f613b2f613b2589601e614509565b8560e00151611d1e565b9050613b3e61347e8283611cec565b6101a0850152613b52612e71896025614509565b6101008501819052613b7690610548613b6c8b6024614509565b8a60200151611cec565b6101008501819052613b9090610548612e448b6023614509565b610100850152613baf613ba4896026614509565b856101000151611d1e565b6101008501525f613bc461308a8a6025614509565b9050613c18613bf2612af0613a7d88610140015160015f5160206150f75f395f51905f526105439190614e96565b610543613a7d88610100015160015f5160206150f75f395f51905f526105439190614e96565b610180860152610100850151613c3d90613c329080611cec565b866101000151611d1e565b6101c0860152610180850151613c7090613c5c906105438c6007614509565b610543613c6a8c600a614509565b89611cec565b6101e0880152610280850151613c8f90613c5c906105438c6007614509565b6102008801526101c0850151613cae90613c5c906105438c6007614509565b6102208801526101a0850151613cc9906105438b6007614509565b610200860152613ce8613cdd8a6024614509565b6105668b601c614509565b610220860152610140850151613d279061308a90613d1c90613a7d9061054360015f5160206150f75f395f51905f52614e96565b876102200151611cec565b61024086018190526101e08601516102608701819052613d5e9161054890610543613d538e6005614509565b6105438f6002614509565b610260860181905260c0860151613d81919061054890610543613d538e5f614509565b6102608601819052610200860151613d999190611d05565b6102608601819052613daf906133569086611d05565b6102a08601819052613dc990610543613c6a8c600a614509565b6102a0860181905287600c6020020152505050505050505050565b613e5a6040518061022001604052805f81526020015f81526020015f81526020015f81526020015f81526020015f81526020015f81526020015f81526020015f81526020015f81526020015f81526020015f81526020015f81526020015f81526020015f81526020015f81526020015f81525090565b613e73613e6885601b614509565b610548866002614509565b8152613e8e613e8385601c614509565b610548866003614509565b6020820152613eac613ea185601d614509565b610548866004614509565b6040820152613eca613ebf85601e614509565b610548866005614509565b60608201528051613efc90613ef590613eee90613ee79080611cec565b8451611cec565b8351611cec565b8251611cec565b60808201526020810151613f3a90613f3090613f2690613f1c9080611cec565b8460200151611cec565b8360200151611cec565b8260200151611cec565b60a08201526040810151613f7890613f6e90613f6490613f5a9080611cec565b8460400151611cec565b8360400151611cec565b8260400151611cec565b60c08201526060810151613fb690613fac90613fa290613f989080611cec565b8460600151611cec565b8360600151611cec565b8260600151611cec565b60e0820152608081015160a0820151613fcf9190611d05565b61010082015260c081015160e0820151613fe99190611d05565b61012082015260a081015161400d906140029080611d05565b826101200151611d05565b61014082015260e0810151614031906140269080611d05565b826101000151611d05565b6101608201526101208101516140479080611d05565b6101e082018190526140689061405d9080611d05565b826101600151611d05565b6101e082015261010081015161407e9080611d05565b6101a0820181905261409f906140949080611d05565b826101400151611d05565b6101a082018190526101608201516140b691611d05565b6101808201526101408101516101e08201516140d29190611d05565b6101c08201526140e6612af085600b614509565b61020082018190526102408401516101808301516141119261054891610543906105668a6023614509565b83601260200201526141418360136020020151610548836102000151610543856101a001516105668a6024614509565b83601360200201526141718360146020020151610548836102000151610543856101c001516105668a6025614509565b83601460200201526141a18360156020020151610548836102000151610543856101e001516105668a6026614509565b836015602002015250505050565b6142016040518061016001604052805f81526020015f81526020015f81526020015f81526020015f81526020015f81526020015f81526020015f81526020015f81526020015f81526020015f81525090565b5f60405180608001604052806142367f10dc6e9c006ea38b04b1e03b4bd9490c0d03f98929ca1d7fb56821fd19d3b6e7611cce565b81526020016142647f0c28145b6a44df3e0149b3d0a30b3bb599df9756d4dd9b84a86b38cfb45a740b611cce565b81526020016142917e544b8338791518b2c7645a50392798b21f75bb60e3596170067d00141cac15611cce565b81526020016142bf7f222c01175718386f2e2e82eb122789e352e105a3b8fa852613bc534433ee428b611cce565b905290506142dc6142d186601b614509565b610548876002614509565b61012083018190526143109061430590613a84906142fa9080611cec565b856101200151611cec565b836101200151611cec565b825261431d85601c614509565b602083015261432d85601d614509565b604083015261433d85601e614509565b606083015281516020830151614365916137889161435b9190611d05565b8460400151611d05565b6080830152614378612da286600c614509565b61014083015281516143999061438f90835f610dc8565b8360800151611d05565b60a08301526143c584601660200201516105488461014001516105438660a001516105668b6023614509565b6102c085015260208201516143e09061438f90836001610dc8565b60c083015261440c84601760200201516105488461014001516105438660c001516105668b6024614509565b6102e085015260408201516144279061438f90836002610dc8565b60e083015261445384601860200201516105488461014001516105438660e001516105668b6025614509565b610300850152606082015161446e9061438f90836003610dc8565b61010083015261449c84601960200201516105488461014001516105438661010001516105668b6026614509565b846019612c29565b5f6144b08184816107b1565b905060015b601a811015614502576144f8826105488684601a81106144d7576144d7614e82565b6020020151866144e8600187614e96565b60198110610dc857610dc8614e82565b91506001016144b5565b5092915050565b5f8282602781111561451d5761451d6150e2565b6028811061452d5761452d614e82565b60200201519392505050565b604051806103c001604052805f81526020015f81526020015f815260200161457260405180604001604052805f81526020015f81525090565b815260200161459260405180604001604052805f81526020015f81525090565b81526020016145b260405180604001604052805f81526020015f81525090565b81526020016145d260405180604001604052805f81526020015f81525090565b81526020016145f260405180604001604052805f81526020015f81525090565b815260200161461260405180604001604052805f81526020015f81525090565b815260200161463260405180604001604052805f81526020015f81525090565b815260200161465260405180604001604052805f81526020015f81525090565b815260200161467260405180604001604052805f81526020015f81525090565b815260200161469260405180604001604052805f81526020015f81525090565b81526020016146b260405180604001604052805f81526020015f81525090565b81526020016146d260405180604001604052805f81526020015f81525090565b81526020016146f260405180604001604052805f81526020015f81525090565b815260200161471260405180604001604052805f81526020015f81525090565b815260200161473260405180604001604052805f81526020015f81525090565b815260200161475260405180604001604052805f81526020015f81525090565b815260200161477260405180604001604052805f81526020015f81525090565b815260200161479260405180604001604052805f81526020015f81525090565b81526020016147b260405180604001604052805f81526020015f81525090565b81526020016147d260405180604001604052805f81526020015f81525090565b81526020016147f260405180604001604052805f81526020015f81525090565b815260200161481260405180604001604052805f81526020015f81525090565b815260200161483260405180604001604052805f81526020015f81525090565b815260200161485260405180604001604052805f81526020015f81525090565b815260200161487260405180604001604052805f81526020015f81525090565b815260200161489260405180604001604052805f81526020015f81525090565b81526020016148b260405180604001604052805f81526020015f81525090565b905290565b604051806101c001604052806148ea60405180608001604052805f81526020015f81526020015f81526020015f81525090565b815260200161491660405180608001604052805f81526020015f81526020015f81526020015f81525090565b815260200161494260405180608001604052805f81526020015f81526020015f81526020015f81525090565b815260200161496e60405180608001604052805f81526020015f81526020015f81526020015f81525090565b815260200161499a60405180608001604052805f81526020015f81526020015f81526020015f81525090565b81526020016149c660405180608001604052805f81526020015f81526020015f81526020015f81525090565b81526020016149f260405180608001604052805f81526020015f81526020015f81526020015f81525090565b8152602001614a1e60405180608001604052805f81526020015f81526020015f81526020015f81525090565b8152602001614a2b614cbb565b8152602001614a38614ce9565b8152602001614a45614d08565b8152602001614a52614bc4565b8152602001614a7e60405180608001604052805f81526020015f81526020015f81526020015f81525090565b81526020016148b260405180608001604052805f81526020015f81526020015f81526020015f81525090565b604051806101000160405280614ae96040518060c001604052805f81526020015f81526020015f81526020015f81526020015f81526020015f81525090565b8152602001614af6614b86565b8152602001614b03614bc4565b8152602001614b10614bc4565b81526020015f81526020015f81526020015f81526020015f81525090565b604051806108c001604052806046906020820280368337509192915050565b604051806108c001604052806046905b604080518082019091525f8082526020820152815260200190600190039081614b5d5790505090565b6040518061032001604052806019906020820280368337509192915050565b6040518061012001604052806009906020820280368337509192915050565b604051806103800160405280601c906020820280368337509192915050565b6040518061052001604052806029906020820280368337509192915050565b60405180610da00160405280606d906020820280368337509192915050565b604051806103a00160405280601d906020820280368337509192915050565b6040518060a001604052806005906020820280368337509192915050565b6040518061010001604052806008906020820280368337509192915050565b604051806103400160405280601a906020820280368337509192915050565b604051806101a00160405280600d906020820280368337509192915050565b604051806103800160405280601c905b614cd3614c5e565b815260200190600190039081614ccb5790505090565b6040518061050001604052806028906020820280368337509192915050565b604051806103600160405280601b905b614d3f60405180608001604052805f81526020015f81526020015f81526020015f81525090565b815260200190600190039081614d185790505090565b5f5f5f5f60408587031215614d68575f5ffd5b843567ffffffffffffffff811115614d7e575f5ffd5b8501601f81018713614d8e575f5ffd5b803567ffffffffffffffff811115614da4575f5ffd5b876020828401011115614db5575f5ffd5b60209182019550935085013567ffffffffffffffff811115614dd5575f5ffd5b8501601f81018713614de5575f5ffd5b803567ffffffffffffffff811115614dfb575f5ffd5b8760208260051b8401011115614e0f575f5ffd5b949793965060200194505050565b634e487b7160e01b5f52601160045260245ffd5b8082028115828204841417611ce657611ce6614e1d565b5f5f85851115614e56575f5ffd5b83861115614e62575f5ffd5b5050820193919092039150565b80820180821115611ce657611ce6614e1d565b634e487b7160e01b5f52603260045260245ffd5b81810381811115611ce657611ce6614e1d565b5f60018201614eba57614eba614e1d565b5060010190565b80356020831015611ce6575f19602084900360031b1b1692915050565b5f8183825b6009811015614f02578151835260209283019290910190600101614ee3565b5050506101208201905092915050565b634e487b7160e01b5f52601260045260245ffd5b5f82614f3457614f34614f12565b500490565b5f8183825b6029811015614f5d578151835260209283019290910190600101614f3e565b5050506105208201905092915050565b5f8183825b606d811015614f91578151835260209283019290910190600101614f72565b505050610da08201905092915050565b5f8183825b601d811015614fc5578151835260209283019290910190600101614fa6565b5050506103a08201905092915050565b5f8183825b6005811015614ff9578151835260209283019290910190600101614fda565b50505060a08201905092915050565b5f8261501657615016614f12565b500690565b5f8161502957615029614e1d565b505f190190565b5f82518060208501845e5f920191825250919050565b5f60208284031215615056575f5ffd5b815180151581146116b4575f5ffd5b634e487b7160e01b5f52604160045260245ffd5b81515f90829060208501835b828110156150a3578151845260209384019390910190600101615085565b509195945050505050565b5f8183825b600d8110156150d25781518352602092830192909101906001016150b3565b5050506101a08201905092915050565b634e487b7160e01b5f52602160045260245ffdfe30644e72e131a029b85045b68181585d2833e84879b9709143e1f593f0000001a264697066735822122080545ff01ea710532409ffcc5cdcb293fa5ddf4498a0334d39005974bdc3242c64736f6c634300081c0033","linkReferences":{}},"methodIdentifiers":{"verify(bytes,bytes32[])":"ea50d0e4"},"id":4}