{"abi":[{"type":"function","name":"verify","inputs":[{"name":"proof","type":"bytes","internalType":"bytes"},{"name":"publicInputs","type":"bytes32[]","internalType":"bytes32[]"}],"outputs":[{"name":"","type":"bool","internalType":"bool"}],"stateMutability":"view"},{"type":"error","name":"ProofLengthWrong","inputs":[]},{"type":"error","name":"PublicInputsLengthWrong","inputs":[]},{"type":"error","name":"ShpleminiFailed","inputs":[]},{"type":"error","name":"SumcheckFailed","inputs":[]}],"bytecode":{"object":"0x60e0604052348015600e575f5ffd5b5062080000608052601360a052600160c05260805160a05160c05161544e6100585f395f61057101525f818161061d01528181610bf60152610c9201525f61051a015261544e5ff3fe608060405234801561000f575f5ffd5b5060043610610029575f3560e01c8063ea50d0e41461002d575b5f5ffd5b61004061003b366004615057565b610054565b604051901515815260200160405180910390f35b5f6100626101b86020615133565b8414610081576040516376ba560560e11b815260040160405180910390fd5b5f61008a610198565b90505f61009787876101ad565b604083015190915084146100be5760405163fa06659360e01b815260040160405180910390fd5b5f6100d5828787865f015187604001516001610455565b90506101238686808060200260200160405190810160405280939291908181526020018383602002808284375f92019190915250508451606081015160809091015190925090506001610504565b815160a001525f6101348383610615565b905080610154576040516313f8744360e31b815260040160405180910390fd5b5f610160848685610716565b905080610180576040516352ec174560e11b815260040160405180910390fd5b81801561018a5750805b9a9950505050505050505050565b6101a061483b565b6101a8610f8a565b905090565b6101b5614bb9565b6101ca6101c560805f858761514a565b61186d565b81526101de6101c56101006080858761514a565b60208201526101f66101c5610180610100858761514a565b604082015261020e6101c5610200610180858761514a565b60a08201526102266101c5610280610200858761514a565b60c082015261023e6101c5610300610280858761514a565b60608201526102566101c5610380610300858761514a565b60e082015261026e6101c5610400610380858761514a565b60808201526104005f5b601c811015610305575f5b60088110156102fc576102af86848761029d826020615171565b926102aa9392919061514a565b611961565b84610100015183601c81106102c6576102c6615184565b602002015182600881106102dc576102dc615184565b6020020181815250506020836102f29190615171565b9250600101610283565b50600101610278565b505f5b60288110156103595761032285838661029d826020615171565b836101200151826028811061033957610339615184565b60200201818152505060208261034f9190615171565b9150600101610308565b505f5b6103686001601c615198565b8110156103be5761038d858386610380826080615171565b926101c59392919061514a565b83610140015182601b81106103a4576103a4615184565b60200201526103b4608083615171565b915060010161035c565b505f5b601c811015610412576103db85838661029d826020615171565b83610160015182601c81106103f2576103f2615184565b6020020181815250506020826104089190615171565b91506001016103c1565b50610424848285610380826080615171565b610180830152610435816080615171565b9050610448848285610380826080615171565b6101a08301525092915050565b61045d614dac565b5f61046d888888888888876119bd565b908352905061047c8189611a3e565b6020840191909152905061048f81611bd9565b604084019190915290506104a38882611c3a565b606084019190915290506104b78882611d0e565b608084019190915290506104cb8882611d99565b60a084019190915290506104df8882611f07565b60c084019190915290506104f38882611f79565b5060e0830152509695505050505050565b5f6001808261054d866105488961054361053e8a7f0000000000000000000000000000000000000000000000000000000000000000615171565b611fd0565b611fee565b612007565b90505f61056b876105668a61054361053e8b6001615171565b612020565b90505f5b7f00000000000000000000000000000000000000000000000000000000000000008110156105fd575f6105ba8b83815181106105ad576105ad615184565b6020026020010151611fd0565b90506105ca866105438684612007565b95506105da856105438584612007565b94506105e6848b612007565b93506105f2838b612020565b92505060010161056f565b50610608848461204f565b9998505050505050505050565b5f806001815b7f00000000000000000000000000000000000000000000000000000000000000008110156106ec575f86610100015182601c811061065b5761065b615184565b602002015190505f61066d828661205d565b90508061068d576040516313f8744360e31b815260040160405180910390fd5b5f876060015184601c81106106a4576106a4615184565b602002015190506106b5838261207a565b95506106dc886040015185601c81106106d0576106d0615184565b60200201518683612229565b945050505080600101905061061b565b505f610706866101200151865f0151876020015185612254565b90508281145b9695505050505050565b5f61075d6040518061012001604052805f81526020015f81526020015f81526020015f81526020015f81526020015f81526020015f81526020015f81526020015f81525090565b5f61076b8460a001516122c2565b9050610775614e30565b61077d614e4f565b60e086015161079c9061079790855f5b6020020151612020565b612327565b60a085015260e08601516107bb9061079790855f5b6020020151612007565b60c080860182905260a0860151908801516107da926105489190611fee565b845260a0860151610808906107ee90612327565b6105438660a001516105668a60c001518960c00151611fee565b60208501526001825261018088015161082090612390565b81526001606085018190525f60808601525b602381116108d857610853610849865f01516123da565b8660600151611fee565b83826046811061086557610865615184565b602002015260808501516101208a01516108a8919061054890610889600186615198565b6028811061089957610899615184565b60200201518860600151611fee565b8560800181815250506108c385606001518860800151611fee565b60608601526108d1816151ab565b9050610832565b505f6108e660236001615171565b90505b602881116109675761090161084986602001516123da565b83826046811061091357610913615184565b602002015260808501516101208a0151610937919061054890610889600186615198565b85608001818152505061095285606001518860800151611fee565b6060860152610960816151ab565b90506108e9565b50606087015181600160200201526080870151816002602002015260a0870151816003602002015260c0870151816004602002015260e0870151816005602002015261010087015181600660200201526101208701518160076020020152610140870151816008602002015261016087015181600960200201526101a087015181600a602002015261018087015181600b60200201526101c087015181600c60200201526101e087015181600d602002015261020087015181600e602002015261022087015181600f60200201526102408701518160106020020152610260870151816011602002015261028087015181601260200201526102a087015181601360200201526102c087015181601460200201526102e08701518160156020020152610300870151816016602002015261032087015181601760200201526103408701518160186020020152610360870151816019602002015261038087015181601a60200201526103a087015181601b60200201528751610ae890612390565b6103808201526020880151610afc90612390565b6103a08201526040880151610b1090612390565b6103c08201526060880151610b2490612390565b6103e08201526080880151610b3890612390565b61040082015260e0880151610b4c90612390565b61042082015260a0880151610b6090612390565b61044082015260c0880151610b7490612390565b6104608201528751610b8590612390565b6104808201526020880151610b9990612390565b6104a08201526040880151610bad90612390565b6104c08201526060880151610bc190612390565b6104e08201526080880151610bd590612390565b610500820152606086015160808501516101608a01515f92610c1a929091877f00000000000000000000000000000000000000000000000000000000000000006123f2565b805160a0870151919250610c2d91611fee565b604086018190526101608a01515160c0890151610c5d929161054891610c539190611fee565b8860c00151611fee565b604086015260c0870151610c709061250d565b60608601525f5b610c836001601c615198565b811015610e85575f610cb660017f0000000000000000000000000000000000000000000000000000000000000000615198565b821015905080610e2b57610ce96107978a60e0015188856001610cd99190615171565b601c811061078d5761078d615184565b60a088015260e0890151610d17906107979088610d07866001615171565b601c81106107b1576107b1615184565b60c0880152606087015160a0880151610d309190611fee565b60e0880152606087015160c08a0151610d4c91610c5391611fee565b6101008801819052610d6e90610d61906123da565b6105488960e001516123da565b8583610d7c60286001615171565b610d869190615171565b60468110610d9657610d96615184565b60200201526101008701516101608c01515f91610dd291610db8866001615171565b601c8110610dc857610dc8615184565b6020020151611fee565b9050610dee816105488a60e0015187876001610db89190615171565b9050610dfe886040015182612007565b6040890152606088015160c08b0151610e2491610e1a91611fee565b8b60c00151611fee565b6060890152505b610e4f8b610140015183601b8110610e4557610e45615184565b6020020151612390565b8483610e5d60286001615171565b610e679190615171565b60468110610e7757610e77615184565b602002015250600101610c77565b5060408051808201909152600181526002602082015282610ea8601c6028615171565b60468110610eb857610eb8615184565b6020020152604085015183610ecf601c6028615171565b60468110610edf57610edf615184565b60200201526101a08901515f90610ef590612390565b90508083610f05601c6028615171565b610f10906001615171565b60468110610f2057610f20615184565b602002015260e088015184610f37601c6028615171565b610f42906001615171565b60468110610f5257610f52615184565b60200201525f610f628486612518565b90505f610f6e836125e9565b9050610f7a8282612660565b9c9b505050505050505050505050565b610f9261483b565b50604080516103c08101825262080000815260136020808301919091526001828401819052835180850185527e27ee95838932778fb1f635b98bd33ce221d32b36af6df3e0d074816b7b648181527f0ad03bbcd219e50c18e915a3c47d4b317ba6eb3b7ea346eaa0864dd4be87ce2a818401526060840152835180850185527f19a7ad06a793787c84b88ff4738c57ba59b220f50c0a27e714bdf56aff95144781527f25291e10e6407680492abb8ee8dbe70143503831728c22842d55878c55957faa818401526080840152835180850185527f2f498fa2bc56ff999c79e887d4e5dbb4639d8ae12df8e4b376cbe4445a43e20b81527f10b15be8ebbbcfbc9f3ea1004ed780d6aad96c64e16e334d0c4a14a4a539e4478184015260a0840152835180850185527f0ef1354b6524bd6a4503b6c0792ce259d04df294ce259fc90eb57f25d7bb8ff781527f15f922d2dd7f4cc3f7d07e02ba52f238e9dbcf6e0be4a961dae80a2de5bd84488184015260c0840152835180850185527e386217952122acb549538e1d9f7ad0f430c40f9af3fe774f95c8aad0d0729881527f0ce7bae8181e5de5ec1edc93657edb0a981560bf6b14c133519907bb8a18548b8184015260e0840152835180850185527f0489e296c090192df5aa8b6ffca6e9b3c914c60629cf9b9e6f9625f874df712481527f2f603cc17a1ce59fa7d89db66b03430a2315763312ba2d74c2636e8fa626d0cd81840152610100840152835180850185527f20285761bdb1336a65153f095059fbf8ca26fa43335ae47f5afaf6583474b01e81527f11450a52f0dabcbb70ae0f2f6f78adb2f087328de168a43b73a90cec22b9c44681840152610120840152835180850185527f020c310cc51a8974326341e03669fde3d02d4d95ce5cecccb532a42f55accc9881527f0f66842ba914140e46d45e3dde99a9b8a94b352c6ab4f7c7bacbf64cd063eb2781840152610140840152835180850185527f05d9ea794c3332f346c9a6c76a7bc9111d30add111a0c7e2038c896e7fa97bc181527f085ed283fe36c0134b6c10b29c95d339a4052375d1eba8e256d2b05dbc52565b81840152610160840152835180850185527f1950147597b968bb6f972b7b47bb6b3cada42676bbdbaa23094f183c5289129081527f126e3421407dbcbe51e1dfb3def38b600c529e967d9146491709e1ae958eb55081840152610180840152835180850185527f10bbfcb853da3c4fbcc6f6ba0fe75ff1404022bf38f4a4c69300654ee2ae541a81527f295a15bc47cba51b3f04710fe95605a943bfff1f0f15e3867b06759f9e3831eb818401526101a0840152835180850185527e767dff4abfa04035da134121de68b277cf4cd8e3fd9c4edc248138c2185b5f81527f2a056a8b911d94a52dbcee49cb7a53f80c7af096061e0c8771da4cd1e97ec5b5818401526101c0840152835180850185527f013153d9303d40299eb7cf2f3a107c13fd99f51eddf580ce7e014a208f4062b081527f147f36c9bb83e863fe0d4f08f311bc4c6c2b84d5bf4c19ac5c98e8f3c3b78c65818401526101e0840152835180850185527f03480fb654b36cda14a348d3ef06f27131528221e5b4c108e887c31f19c76c6e81527f289a55fb5522b867ce2923584c7a433c38eb044fa939163ddc165a242834ad5481840152610200840152835180850185527f270ac99eb3d8c67823e89bc0b240b99d77ab2b52fdcbe8c8027701159cf1a54681527f0d8cf73913668f2db3fae9d7e9d2439b09ef14274af35205c8f495d426a81d1181840152610220840152835180850185527f01ebcadf4f106bf4c196b24252ed548e5c212c02fa0223ceaf8b8277fe6b5dce81527f1e515ed09ce07a9b88cb0151f7f8b94417621652a34fc34faa16b3c20f33c6ae81840152610240840152835180850185527ed1651ce977d3fc0cbeb8a976334fd082399fe606f5d4e7a9ce492be8b364ce81527f23c151251ab66018c27b2ea487069621926e5d6f3f5d1a7b8fa17a530800c39f81840152610260840152835180850185527f0b740f64f253e169b6f634bd7850d5732e3e353daa9cd6a4bc3da16fbe3002a781527f1c9556fe1854809292232dc2a5201a85d3c2c21f1608bab8951f2d3dd35c86d981840152610280840152835180850185527f0a00ca53289891edca03ce997ec102db3dfeb805c91c0b191f93f3c1659486e681527f173a0d6741523c31ac040c14246c4267d1e6b0ff92ca5d891de51ef46e522d01818401526102a0840152835180850185527f08adb2ad60e494bbdac64be9ffe21bd6945848d8eb4eacdb2a5077f411d30eab81527f2dc0fa3a8a42b1db7b1db8ed6fe1d52bd71ae126ba96d7807c3368cfece33d22818401526102c0840152835180850185527f26283194dec004d4d3ec575eca6455f129928e3c4d106d1a9cf5fb480b21566081527f0a3bb86c98fffdc7c4b33610cae592013ad614f707da802e622914106c7bc536818401526102e0840152835180850185527f044a1b0181bae1669f9c5e042b5c6743c4a5f15e683abe82d166be7f883d232781527f263b84c40b1d2f435eece1d4260b52d789c51ca0f81d24f24d0088e85ee9eb6c81840152610300840152835180850185527f1fef12185c924aae6e159e44dcb21e76afa40fd936896e369dacb505665acd6e81527f035a43ca9dc932e707d965b98650222aeddee77e21a24a7e3c7a6d38114af00f81840152610320840152835180850185527f0ccda6875b03c4ca2eba6ee0e5485a1b0b0eb97cae651690f61dbc396268f8de81527f19b66d50e3e3b9006b92aa56c4d0b46f5242481299ac816322cddf48d017364081840152610340840152835180850185527f19c1f5273c91a2a94240fbc13b8bf62a609823aa8775de0932d04b12892a4aa081527f2c064e63ce1469ab78e508aab160beaec6632d9e04b19e6a61e62f4a2eb075e3818401526103608401528351808501855290815260028183015261038083015282518084019093527f09b740985ec54b4db4c966173ba9fa4fe4ae6016dbb4e0de9f3dbd9b529a699783527f0879dbbdf39609ec99c880af570d49a3b20939df8ec6ff848e55069e8b44ce25908301526103a081019190915290565b61189460405180608001604052805f81526020015f81526020015f81526020015f81525090565b608082146118df5760405162461bcd60e51b81526020600482015260136024820152721a5b9d985b1a5908189e5d195cc81c1bda5b9d606a1b60448201526064015b60405180910390fd5b6040805160808101909152806118f860205f868861514a565b611901916151c3565b815260209081019061191790604090868861514a565b611920916151c3565b815260200161193360606040868861514a565b61193c916151c3565b815260200161194f60806060868861514a565b611958916151c3565b90529392505050565b5f602082146119a95760405162461bcd60e51b815260206004820152601460248201527334b73b30b634b210313cba32b99039b1b0b630b960611b60448201526064016118d6565b6119b661053e83856151c3565b9392505050565b6119f06040518060c001604052805f81526020015f81526020015f81526020015f81526020015f81526020015f81525090565b5f6119ff898989898989612864565b604086019190915260208501919091529083529250611a1e838a612c87565b608085019190915260608401919091529199919850909650505050505050565b611a46614e88565b5f611a4f614ea7565b84815260e0848101805151602080850191909152815181015160408086019190915282518101516060808701919091529251830151608080870191909152880180515160a0870152805183015160c08701528051820151948601949094529251909101516101008401529051611ae691611acb918491016151e0565b60405160208183030381529060405280519060200120611fd0565b9150611af182612d52565b6020850152835260015b611b0760026019615228565b811015611b8757611b2483604051602001611acb91815260200190565b9250611b2f83612d52565b85611b3b846002615133565b60198110611b4b57611b4b615184565b6020020186611b5b856002615133565b611b66906001615171565b60198110611b7657611b76615184565b602002019190915252600101611afb565b50611b9e82604051602001611acb91815260200190565b91505f611baa83612d52565b85611bb760016019615198565b60198110611bc757611bc7615184565b60200201919091525050509250929050565b611be1614ec6565b5f805b601c811015611c3357611c0384604051602001611acb91815260200190565b93505f611c0f85612d52565b8584601c8110611c2157611c21615184565b60200201919091525050600101611be4565b5090929050565b611c42614ec6565b5f805b601c811015611d0557611c56614ea7565b8481525f5b6008811015611cbf5786610100015183601c8110611c7b57611c7b615184565b60200201518160088110611c9157611c91615184565b602002015182611ca2836001615171565b60098110611cb257611cb2615184565b6020020152600101611c5b565b50611cd481604051602001611acb91906151e0565b94505f611ce086612d52565b8685601c8110611cf257611cf2615184565b6020020191909152505050600101611c45565b50909391925050565b5f5f611d18614ee5565b8381525f5b6028811015611d6b578561012001518160288110611d3d57611d3d615184565b602002015182611d4e836001615171565b60298110611d5e57611d5e615184565b6020020152600101611d1d565b50611d8081604051602001611acb919061523b565b91505f611d8c83612d52565b5096929550919350505050565b5f5f611da3614f04565b8381525f5b611db46001601c615198565b811015611ef25785610140015181601b8110611dd257611dd2615184565b60200201515182611de4836004615133565b611def906001615171565b606d8110611dff57611dff615184565b602002015261014086015181601b8110611e1b57611e1b615184565b60200201516020015182826004611e329190615133565b611e3d906002615171565b606d8110611e4d57611e4d615184565b602002015261014086015181601b8110611e6957611e69615184565b60200201516040015182611e7e836004615133565b611e89906003615171565b606d8110611e9957611e99615184565b602002015261014086015181601b8110611eb557611eb5615184565b60200201516060015182611eca836004615133565b611ed5906004615171565b606d8110611ee557611ee5615184565b6020020152600101611da8565b50611d8081604051602001611acb919061526f565b5f5f611f11614f23565b8381525f5b601c811015611f645785610160015181601c8110611f3657611f36615184565b602002015182611f47836001615171565b601d8110611f5757611f57615184565b6020020152600101611f16565b50611d8081604051602001611acb91906152a3565b5f5f611f83614f42565b83815261018085018051516020808401919091528151810151604080850191909152825181015160608086019190915292519092015160808401529051611d8091611acb918491016152d7565b5f611fe85f5160206153f95f395f51905f528361530a565b92915050565b5f5f5160206153f95f395f51905f528284099392505050565b5f5f5160206153f95f395f51905f528284089392505050565b5f5f5160206153f95f395f51905f52612046835f5160206153f95f395f51905f52615198565b84089392505050565b5f6119b68361054384612327565b81515f90819061206f908560016107b1565b929092149392505050565b60408051610100810182527f30644e72e131a029b85045b68181585d2833e84879b9709143e1f593efffec5181526102d060208201527f30644e72e131a029b85045b68181585d2833e84879b9709143e1f593efffff1191810191909152609060608201527f30644e72e131a029b85045b68181585d2833e84879b9709143e1f593efffff71608082015260f060a08201527f30644e72e131a029b85045b68181585d2833e84879b9709143e1f593effffd3160c08201526113b060e08201525f906001825b600881101561216157612157826105438784612020565b9150600101612140565b5061216a614f60565b5f5b60088110156121cb575f84826008811061218857612188615184565b6020020151905061219d816105438985612020565b90506121a881612327565b9050808383600881106121bd576121bd615184565b60200201525060010161216c565b505f5b600881101561221e575f8782600881106121ea576121ea615184565b6020020151905061220781848460088110610dc857610dc8615184565b90506122138682612007565b9550506001016121ce565b5061070c8483611fee565b5f5f61223f600161054885610543896001612020565b905061224b8482611fee565b95945050505050565b5f61225d614f7f565b612268868285612d8b565b61227486868386612f37565b6122808686838661311f565b61228b86828561331b565b612296868285613503565b6122a28686838661384c565b6122ad8682856140e6565b6122b88682856144b1565b61070c81856147a6565b6122ca614ec6565b81815260015b601c81101561232157612302826122e8600184615198565b601c81106122f8576122f8615184565b602002015161250d565b8282601c811061231457612314615184565b60200201526001016122d0565b50919050565b5f5f8290505f604051602081526020808201526020604082015282606082015260025f5160206153f95f395f51905f520360808201525f5160206153f95f395f51905f5260a082015260205f60c08360055afa905080612385575f5ffd5b50505f519392505050565b604080518082019091525f8082526020820152604051806040016040528060888460200151901b845f015117815260200160888460600151901b8460400151178152509050919050565b5f611fe8825f5160206153f95f395f51905f52615198565b6123fa614ec6565b601c5b8015612503575f84612410600184615198565b601c811061242057612420615184565b602002015190505f88612434600185615198565b601c811061244457612444615184565b602002015190505f61249f61246361245c858c611fee565b6002611fee565b6105668a612472600189615198565b601c811061248257612482615184565b60200201516105436124998861054360018a612020565b87612020565b90506124c0816105436107976124ba87610543600189612020565b86612007565b90508584116124ef5797508780856124d9600187615198565b601c81106124e9576124e9615184565b60200201525b505050806124fc9061531d565b90506123fd565b5095945050505050565b5f611fe88283611fee565b604080518082019091525f80825260208201525f612538601c6028615171565b612543906002615171565b90506001604051855151604082015285516020015160608201528451608082015260408160606040840160075afa8216915060015b838110156125d15760208102870160208202870181515160408501528151602001516060850152805160808501525050604080830160606040850160075afa8316925060408260808460065afa90921691600101612578565b50805184526020810151602085015250505092915050565b604080518082019091525f80825260208201527f30644e72e131a029b85045b68181585d97816a916871ca8d3c208c16d87cfd4782602001517f30644e72e131a029b85045b68181585d97816a916871ca8d3c208c16d87cfd4761264d9190615198565b612657919061530a565b60208301525090565b81516020808401518351848301516040805194850195909552938301919091527f198e9393920d483a7260bfb731fb5d25f1aa493335a9e71297e485b7aef312c260608301527f1800deef121f1e76426a00665e5c4479674322d4f75edadd46debd5cd992f6ed60808301527f090689d0585ff075ec9e99ad690c3395bc4b313370b38ef355acdadcd122975b60a08301527f12c85ea5db8c6deb4aab71808dcb408fe3d1e7690c43d37b4ce6cc0166fa7daa60c083015260e08201526101008101919091527f260e01b251f6f1c7e7ff4e580791dee8ea51d87a358e038b4efe30fac09383c16101208201527f0118c4d5b837bcc2bc89b5b398b5974e9f5944073b32078b7e231fec938883b06101408201527f04fc6369f7110fe3d25156c1bb9a72859cf2a04641f99ba4ee413c80da6a5fe46101608201527f22febda3c0c0632a56475b4214e5615e11e6dd3f96e6cea2854a87d4dacc5e556101808201525f9081906101a00160405160208183030381529060405290505f5f60086001600160a01b0316836040516127f69190615332565b5f60405180830381855afa9150503d805f811461282e576040519150601f19603f3d011682016040523d82523d5f602084013e612833565b606091505b50915091505f8180602001905181019061284d9190615348565b90508280156128595750805b979650505050505050565b5f80808080612874876003615171565b61287f90600c615171565b67ffffffffffffffff81111561289757612897615367565b6040519080825280602002602001820160405280156128c0578160200160208202803683370190505b509050875f1b815f815181106128d8576128d8615184565b602002602001018181525050865f1b816001815181106128fa576128fa615184565b602002602001018181525050855f1b8160028151811061291c5761291c615184565b60209081029190910101525f5b8781101561297b578a8a8281811061294357612943615184565b90506020020135828260036129589190615171565b8151811061296857612968615184565b6020908102919091010152600101612929565b508a51518161298b896003615171565b8151811061299b5761299b615184565b6020908102919091018101919091528b510151816129ba896003615171565b6129c5906001615171565b815181106129d5576129d5615184565b60209081029190910101528a5160400151816129f2896003615171565b6129fd906002615171565b81518110612a0d57612a0d615184565b60209081029190910101528a516060015181612a2a896003615171565b612a35906003615171565b81518110612a4557612a45615184565b6020908102919091018101919091528b01515181612a64896003615171565b612a6f906004615171565b81518110612a7f57612a7f615184565b6020908102919091018101919091528b810151015181612aa0896003615171565b612aab906005615171565b81518110612abb57612abb615184565b6020908102919091018101919091528b01516040015181612add896003615171565b612ae8906006615171565b81518110612af857612af8615184565b6020908102919091018101919091528b01516060015181612b1a896003615171565b612b25906007615171565b81518110612b3557612b35615184565b602090810291909101015260408b01515181612b52896003615171565b612b5d906008615171565b81518110612b6d57612b6d615184565b60209081029190910181019190915260408c0151015181612b8f896003615171565b612b9a906009615171565b81518110612baa57612baa615184565b60209081029190910101526040808c0151015181612bc9896003615171565b612bd490600a615171565b81518110612be457612be4615184565b602090810291909101015260408b01516060015181612c04896003615171565b612c0f90600b615171565b81518110612c1f57612c1f615184565b602002602001018181525050612c3f81604051602001611acb919061537b565b9150612c4a82612d52565b6040805160208101869052929750909550612c659101611acb565b91505f612c7183612d52565b50959c949b509499509097509195505050505050565b5f5f5f612c92614f9e565b85815260a0858101805151602080850191909152815181015160408086019190915282518101516060808701919091529251830151608086015260c0808a0180515195870195909552845183015190860152835181015160e086015292518201516101008501528188018051516101208601528051820151610140860152805184015161016086015251909101516101808401529051612d3891611acb918491016153b0565b9150612d4382612d52565b90979096509194509092505050565b5f80826fffffffffffffffffffffffffffffffff8116608082901c612d7682611fd0565b9450612d8181611fd0565b9350505050915091565b5f612d9784600761480b565b90507f183227397098d014dc2822db40c0ac2e9419f4243cdcb848a1f0fac9f80000005f612df8612df2612dcc856003612020565b610543612de7612ddc8b5f61480b565b6105438c601c61480b565b6105438b601b61480b565b83611fee565b9050612e79612e6e612e55612e3c612e2385610548612e188d600261480b565b6105438e601b61480b565b610548612e318c600361480b565b6105438d601c61480b565b610548612e4a8b600461480b565b6105438c601d61480b565b610548612e638a600561480b565b6105438b601e61480b565b61054888600161480b565b9050612e9881610548612e8d866001612020565b6105438a602661480b565b9050612ea48184611fee565b9050612eb08185611fee565b8552505f9050612eea612ee0612ed5612eca88601b61480b565b61054889601e61480b565b61056688602361480b565b610548875f61480b565b9050612efb81610543846002612020565b9050612f0c81610543846001612020565b9050612f188183611fee565b9050612f248184611fee565b9050808460015b60200201525050505050565b5f5f5f612f6d612f63612f4b89601b61480b565b610548612f598b601161480b565b8a60600151611fee565b8760800151612007565b9050612fa681610543612f9c612f848b601c61480b565b610548612f928d601261480b565b8c60600151611fee565b8960800151612007565b9050612fcb81610543612f9c612fbd8b601d61480b565b610548612f928d601361480b565b9050612ff081610543612f9c612fe28b601e61480b565b610548612f928d601461480b565b92505f9050613014612f6361300689601b61480b565b610548612f598b600d61480b565b905061303981610543612f9c61302b8b601c61480b565b610548612f928d600e61480b565b905061305e81610543612f9c6130508b601d61480b565b610548612f928d600f61480b565b905061308381610543612f9c6130758b601e61480b565b610548612f928d601061480b565b91505f90506130aa6130a461309989601f61480b565b6105488a601961480b565b84611fee565b90506130df816105666130d96130c18b602761480b565b6105486130cf8d601a61480b565b8c60a00151611fee565b85611fee565b90506130eb8185611fee565b6040860152505f61310e6130d961310389601a61480b565b6105438a602761480b565b606090950194909452505050505050565b5f5f61317d61316561314d613138612f9c8a601561480b565b6105486131468b601661480b565b8a51611fee565b61054861315b8a601761480b565b8960200151611fee565b61054861317389601861480b565b8860400151611fee565b91505f6131b461319b61319189601b61480b565b8860800151612007565b6105486131a98a600361480b565b6105438b602361480b565b90505f6131dd6131c589601c61480b565b6105486131d28b5f61480b565b6105438c602461480b565b90505f6132076131ee8a601d61480b565b6105486131fc8c600161480b565b6105438d602561480b565b905061324661322e61322085610548868d5f0151611fee565b610548848c60200151611fee565b61054861323c8c600461480b565b8b60400151611fee565b93505050505f61325a6130a488602061480b565b90505f61326b6130a489602061480b565b90505f6132a361328a61327f8b602261480b565b6105488c600661480b565b6105666132988c602261480b565b6105438d600661480b565b90505f6132c76132c16132b68789611fee565b6105438d602061480b565b83612020565b90506132d38188611fee565b90505f6132fb6132ed6132e78d600661480b565b87611fee565b6105666132e78e602161480b565b60808a018390529050808960055b60200201525050505050505050505050565b5f6133275f6001612020565b90505f6133355f6002612020565b90505f6133435f6003612020565b90505f61335f61335488601c61480b565b61056689601b61480b565b90505f61337b61337089601d61480b565b6105668a601c61480b565b90505f61339761338c8a601e61480b565b6105668b601d61480b565b90505f6133b36133a88b602361480b565b6105668c601e61480b565b9050836133c481610543818b612007565b90506133d481610543878a612007565b90506133e4816105438789612007565b90506133f5816105438d600861480b565b9050613401818a611fee565b60c08b0152508261341681610543818b612007565b905061342681610543868a612007565b9050613436816105438689612007565b9050613447816105438d600861480b565b9050613453818a611fee565b60e08b0152508161346881610543818b612007565b905061347881610543858a612007565b9050613488816105438589612007565b9050613499816105438d600861480b565b90506134a5818a611fee565b6101008b015250806134bb81610543818b612007565b90506134cb81610543848a612007565b90506134db816105438489612007565b90506134ec816105438d600861480b565b90506134f8818a611fee565b9050808a6009613309565b61353c6040518060e001604052805f81526020015f81526020015f81526020015f81526020015f81526020015f81526020015f81525090565b61354784601c61480b565b815261355484601d61480b565b602082015261356484602361480b565b604082015261357484602661480b565b606082015261358484602561480b565b608082015261359484602461480b565b60a08201525f6135a585600261480b565b90505f6135b2865f61480b565b90505f6135c68460400151855f0151612020565b90505f6135db85602001518660200151611fee565b606086015190915086905f906135f19080611fee565b90505f61360f61360989602001518a60600151611fee565b88611fee565b90505f61362e6136278a60a001518b60400151612007565b8a51612007565b905061363d6132e78288611fee565b905061366461365e6136586136528487612020565b88612020565b84612007565b83612007565b905061368c6136816136768387611fee565b6105438f600961480b565b61054360018a612020565b6101408c015250505050602085015160808601515f916136ab91612007565b90505f6136c96136bf886060015188611fee565b8860200151612020565b90505f6136ed6136d98487611fee565b6105486130d98b60a001518c5f0151612020565b905061371561370a6136ff838c611fee565b6105438e600961480b565b610543600189612020565b6101608b0152505f9150613736905061372f836011612007565b8751611fee565b90505f6137438384612007565b905061374f8182612007565b90505f61375d836009611fee565b90506137866137806130a46137798b60a001518c5f0151612007565b8b51612007565b82612020565b60c089018190525f906137a19061360990613676908d611fee565b90506137b48b600a602002015182612007565b6101408c0152505086515f92506137db915061372f906137d49080612007565b8851612007565b90505f61381b6137f6836105438a5f01518b60a00151612020565b6020890151610566906138099080612007565b6105438b602001518c60800151612007565b905061383889600b6020020151610548613609613676858d611fee565b89600b602002015250505050505050505050565b6138e0604051806102c001604052805f81526020015f81526020015f81526020015f81526020015f81526020015f81526020015f81526020015f81526020015f81526020015f81526020015f81526020015f81526020015f81526020015f81526020015f81526020015f81526020015f81526020015f81526020015f81526020015f81526020015f81526020015f81525090565b6139156138fc6138f187601b61480b565b61054388602461480b565b61054861390a88602361480b565b61054389601c61480b565b815261395a61394f61393661392b88601b61480b565b61054389601e61480b565b61054861394489601c61480b565b6105438a601d61480b565b61056687602561480b565b6040820181905261396f90600160441b611fee565b604082018190526139859061056687602661480b565b6040820181905281516139989190612007565b604082018190526139ae9061054387600561480b565b604082015280516139c390600160441b611fee565b8082526139e3906105486139d888602361480b565b61054389602461480b565b808252602082018190526139ff90610566612eca88601d61480b565b60208201819052613a159061054387600461480b565b6020820152805160608201819052613a329061054887601e61480b565b60608201819052613a5690610566613a4b88602561480b565b61054889602661480b565b60608201819052613a6b90610543875f61480b565b8160600181815250505f613a94613a8a83602001518460400151612007565b8360600151612007565b9050613aa58161054388600361480b565b9050613abd613ab587602461480b565b614000611fee565b60808301819052613ad39061054888602361480b565b60808301819052613ae690614000611fee565b60808301819052613afc9061054888601d61480b565b60808301819052613b0f90614000611fee565b60808301819052613b259061054888601c61480b565b60808301819052613b3890614000611fee565b60808301819052613b4e9061054888601b61480b565b60808301819052613b649061056688601e61480b565b60808301819052613b7a9061054388600561480b565b6080830152613b8d613ab587602561480b565b60a08301819052613ba39061054888602461480b565b60a08301819052613bb690614000611fee565b60a08301819052613bcc9061054888602361480b565b60a08301819052613bdf90614000611fee565b60a08301819052613bf59061054888601e61480b565b60a08301819052613c0890614000611fee565b60a08301819052613c1e9061054888601d61480b565b60a08301819052613c349061056688602661480b565b60a08301819052613c4990610543885f61480b565b60a0830181905260808301515f91613c619190612007565b9050613c728161054389600461480b565b9050613c8c613c8288601d61480b565b8760400151611fee565b60c08401819052613ca59061054861315b8a601c61480b565b60c08401819052613cc590610548613cbe8a601b61480b565b8951611fee565b60c08401819052613cdb9061054889600161480b565b60c0840181905260e08401819052613cf89061056689601e61480b565b60c0840152613d0b61335488602361480b565b610140840152613d2a613d1f88602661480b565b61056689601e61480b565b610120840152610140830151613d4f90613d449080611fee565b846101400151612020565b610280840152610140830151613d9190613d8690613d7f9061054360015f5160206153f95f395f51905f52615198565b6001612007565b846101200151611fee565b6101608401819052613dc890613dba90610543613daf8b600261480b565b6105438c600361480b565b6105436132e78a600a61480b565b6101a0860152610280830151613dea90613dba90610543613daf8b600261480b565b6101c086015260c0830151613e1290610543613e078a600261480b565b6105438b600361480b565b6101e08401525f613e31613e2789601e61480b565b8560e00151612020565b9050613e406137808283611fee565b6101a0850152613e5461317389602561480b565b6101008501819052613e7890610548613e6e8b602461480b565b8a60200151611fee565b6101008501819052613e92906105486131468b602361480b565b610100850152613eb1613ea689602661480b565b856101000151612020565b6101008501525f613ec661338c8a602561480b565b9050613f1a613ef4612df2613d7f88610140015160015f5160206153f95f395f51905f526105439190615198565b610543613d7f88610100015160015f5160206153f95f395f51905f526105439190615198565b610180860152610100850151613f3f90613f349080611fee565b866101000151612020565b6101c0860152610180850151613f7290613f5e906105438c600761480b565b610543613f6c8c600a61480b565b89611fee565b6101e0880152610280850151613f9190613f5e906105438c600761480b565b6102008801526101c0850151613fb090613f5e906105438c600761480b565b6102208801526101a0850151613fcb906105438b600761480b565b610200860152613fea613fdf8a602461480b565b6105668b601c61480b565b6102208601526101408501516140299061338c9061401e90613d7f9061054360015f5160206153f95f395f51905f52615198565b876102200151611fee565b61024086018190526101e0860151610260870181905261406091610548906105436140558e600561480b565b6105438f600261480b565b610260860181905260c08601516140839190610548906105436140558e5f61480b565b610260860181905261020086015161409b9190612007565b61026086018190526140b1906136589086612007565b6102a086018190526140cb90610543613f6c8c600a61480b565b6102a0860181905287600c6020020152505050505050505050565b61415c6040518061022001604052805f81526020015f81526020015f81526020015f81526020015f81526020015f81526020015f81526020015f81526020015f81526020015f81526020015f81526020015f81526020015f81526020015f81526020015f81526020015f81526020015f81525090565b61417561416a85601b61480b565b61054886600261480b565b815261419061418585601c61480b565b61054886600361480b565b60208201526141ae6141a385601d61480b565b61054886600461480b565b60408201526141cc6141c185601e61480b565b61054886600561480b565b606082015280516141fe906141f7906141f0906141e99080611fee565b8451611fee565b8351611fee565b8251611fee565b6080820152602081015161423c90614232906142289061421e9080611fee565b8460200151611fee565b8360200151611fee565b8260200151611fee565b60a0820152604081015161427a90614270906142669061425c9080611fee565b8460400151611fee565b8360400151611fee565b8260400151611fee565b60c082015260608101516142b8906142ae906142a49061429a9080611fee565b8460600151611fee565b8360600151611fee565b8260600151611fee565b60e0820152608081015160a08201516142d19190612007565b61010082015260c081015160e08201516142eb9190612007565b61012082015260a081015161430f906143049080612007565b826101200151612007565b61014082015260e0810151614333906143289080612007565b826101000151612007565b6101608201526101208101516143499080612007565b6101e0820181905261436a9061435f9080612007565b826101600151612007565b6101e08201526101008101516143809080612007565b6101a082018190526143a1906143969080612007565b826101400151612007565b6101a082018190526101608201516143b891612007565b6101808201526101408101516101e08201516143d49190612007565b6101c08201526143e8612df285600b61480b565b61020082018190526102408401516101808301516144139261054891610543906105668a602361480b565b83601260200201526144438360136020020151610548836102000151610543856101a001516105668a602461480b565b83601360200201526144738360146020020151610548836102000151610543856101c001516105668a602561480b565b83601460200201526144a38360156020020151610548836102000151610543856101e001516105668a602661480b565b836015602002015250505050565b6145036040518061016001604052805f81526020015f81526020015f81526020015f81526020015f81526020015f81526020015f81526020015f81526020015f81526020015f81526020015f81525090565b5f60405180608001604052806145387f10dc6e9c006ea38b04b1e03b4bd9490c0d03f98929ca1d7fb56821fd19d3b6e7611fd0565b81526020016145667f0c28145b6a44df3e0149b3d0a30b3bb599df9756d4dd9b84a86b38cfb45a740b611fd0565b81526020016145937e544b8338791518b2c7645a50392798b21f75bb60e3596170067d00141cac15611fd0565b81526020016145c17f222c01175718386f2e2e82eb122789e352e105a3b8fa852613bc534433ee428b611fd0565b905290506145de6145d386601b61480b565b61054887600261480b565b61012083018190526146129061460790613d86906145fc9080611fee565b856101200151611fee565b836101200151611fee565b825261461f85601c61480b565b602083015261462f85601d61480b565b604083015261463f85601e61480b565b60608301528151602083015161466791613a8a9161465d9190612007565b8460400151612007565b608083015261467a6130a486600c61480b565b610140830152815161469b9061469190835f610dc8565b8360800151612007565b60a08301526146c784601660200201516105488461014001516105438660a001516105668b602361480b565b6102c085015260208201516146e29061469190836001610dc8565b60c083015261470e84601760200201516105488461014001516105438660c001516105668b602461480b565b6102e085015260408201516147299061469190836002610dc8565b60e083015261475584601860200201516105488461014001516105438660e001516105668b602561480b565b61030085015260608201516147709061469190836003610dc8565b61010083015261479e84601960200201516105488461014001516105438661010001516105668b602661480b565b846019612f2b565b5f6147b28184816107b1565b905060015b601a811015614804576147fa826105488684601a81106147d9576147d9615184565b6020020151866147ea600187615198565b60198110610dc857610dc8615184565b91506001016147b7565b5092915050565b5f8282602781111561481f5761481f6153e4565b6028811061482f5761482f615184565b60200201519392505050565b604051806103c001604052805f81526020015f81526020015f815260200161487460405180604001604052805f81526020015f81525090565b815260200161489460405180604001604052805f81526020015f81525090565b81526020016148b460405180604001604052805f81526020015f81525090565b81526020016148d460405180604001604052805f81526020015f81525090565b81526020016148f460405180604001604052805f81526020015f81525090565b815260200161491460405180604001604052805f81526020015f81525090565b815260200161493460405180604001604052805f81526020015f81525090565b815260200161495460405180604001604052805f81526020015f81525090565b815260200161497460405180604001604052805f81526020015f81525090565b815260200161499460405180604001604052805f81526020015f81525090565b81526020016149b460405180604001604052805f81526020015f81525090565b81526020016149d460405180604001604052805f81526020015f81525090565b81526020016149f460405180604001604052805f81526020015f81525090565b8152602001614a1460405180604001604052805f81526020015f81525090565b8152602001614a3460405180604001604052805f81526020015f81525090565b8152602001614a5460405180604001604052805f81526020015f81525090565b8152602001614a7460405180604001604052805f81526020015f81525090565b8152602001614a9460405180604001604052805f81526020015f81525090565b8152602001614ab460405180604001604052805f81526020015f81525090565b8152602001614ad460405180604001604052805f81526020015f81525090565b8152602001614af460405180604001604052805f81526020015f81525090565b8152602001614b1460405180604001604052805f81526020015f81525090565b8152602001614b3460405180604001604052805f81526020015f81525090565b8152602001614b5460405180604001604052805f81526020015f81525090565b8152602001614b7460405180604001604052805f81526020015f81525090565b8152602001614b9460405180604001604052805f81526020015f81525090565b8152602001614bb460405180604001604052805f81526020015f81525090565b905290565b604051806101c00160405280614bec60405180608001604052805f81526020015f81526020015f81526020015f81525090565b8152602001614c1860405180608001604052805f81526020015f81526020015f81526020015f81525090565b8152602001614c4460405180608001604052805f81526020015f81526020015f81526020015f81525090565b8152602001614c7060405180608001604052805f81526020015f81526020015f81526020015f81525090565b8152602001614c9c60405180608001604052805f81526020015f81526020015f81526020015f81525090565b8152602001614cc860405180608001604052805f81526020015f81526020015f81526020015f81525090565b8152602001614cf460405180608001604052805f81526020015f81526020015f81526020015f81525090565b8152602001614d2060405180608001604052805f81526020015f81526020015f81526020015f81525090565b8152602001614d2d614fbd565b8152602001614d3a614feb565b8152602001614d4761500a565b8152602001614d54614ec6565b8152602001614d8060405180608001604052805f81526020015f81526020015f81526020015f81525090565b8152602001614bb460405180608001604052805f81526020015f81526020015f81526020015f81525090565b604051806101000160405280614deb6040518060c001604052805f81526020015f81526020015f81526020015f81526020015f81526020015f81525090565b8152602001614df8614e88565b8152602001614e05614ec6565b8152602001614e12614ec6565b81526020015f81526020015f81526020015f81526020015f81525090565b604051806108c001604052806046906020820280368337509192915050565b604051806108c001604052806046905b604080518082019091525f8082526020820152815260200190600190039081614e5f5790505090565b6040518061032001604052806019906020820280368337509192915050565b6040518061012001604052806009906020820280368337509192915050565b604051806103800160405280601c906020820280368337509192915050565b6040518061052001604052806029906020820280368337509192915050565b60405180610da00160405280606d906020820280368337509192915050565b604051806103a00160405280601d906020820280368337509192915050565b6040518060a001604052806005906020820280368337509192915050565b6040518061010001604052806008906020820280368337509192915050565b604051806103400160405280601a906020820280368337509192915050565b604051806101a00160405280600d906020820280368337509192915050565b604051806103800160405280601c905b614fd5614f60565b815260200190600190039081614fcd5790505090565b6040518061050001604052806028906020820280368337509192915050565b604051806103600160405280601b905b61504160405180608001604052805f81526020015f81526020015f81526020015f81525090565b81526020019060019003908161501a5790505090565b5f5f5f5f6040858703121561506a575f5ffd5b843567ffffffffffffffff811115615080575f5ffd5b8501601f81018713615090575f5ffd5b803567ffffffffffffffff8111156150a6575f5ffd5b8760208284010111156150b7575f5ffd5b60209182019550935085013567ffffffffffffffff8111156150d7575f5ffd5b8501601f810187136150e7575f5ffd5b803567ffffffffffffffff8111156150fd575f5ffd5b8760208260051b8401011115615111575f5ffd5b949793965060200194505050565b634e487b7160e01b5f52601160045260245ffd5b8082028115828204841417611fe857611fe861511f565b5f5f85851115615158575f5ffd5b83861115615164575f5ffd5b5050820193919092039150565b80820180821115611fe857611fe861511f565b634e487b7160e01b5f52603260045260245ffd5b81810381811115611fe857611fe861511f565b5f600182016151bc576151bc61511f565b5060010190565b80356020831015611fe8575f19602084900360031b1b1692915050565b5f8183825b60098110156152045781518352602092830192909101906001016151e5565b5050506101208201905092915050565b634e487b7160e01b5f52601260045260245ffd5b5f8261523657615236615214565b500490565b5f8183825b602981101561525f578151835260209283019290910190600101615240565b5050506105208201905092915050565b5f8183825b606d811015615293578151835260209283019290910190600101615274565b505050610da08201905092915050565b5f8183825b601d8110156152c75781518352602092830192909101906001016152a8565b5050506103a08201905092915050565b5f8183825b60058110156152fb5781518352602092830192909101906001016152dc565b50505060a08201905092915050565b5f8261531857615318615214565b500690565b5f8161532b5761532b61511f565b505f190190565b5f82518060208501845e5f920191825250919050565b5f60208284031215615358575f5ffd5b815180151581146119b6575f5ffd5b634e487b7160e01b5f52604160045260245ffd5b81515f90829060208501835b828110156153a5578151845260209384019390910190600101615387565b509195945050505050565b5f8183825b600d8110156153d45781518352602092830192909101906001016153b5565b5050506101a08201905092915050565b634e487b7160e01b5f52602160045260245ffdfe30644e72e131a029b85045b68181585d2833e84879b9709143e1f593f0000001a2646970667358221220f9bea8d0168b141727a7d13adc0c000854856bad286c50fea022cfb194b92c9864736f6c634300081c0033","linkReferences":{}},"methodIdentifiers":{"verify(bytes,bytes32[])":"ea50d0e4"},"id":4}