{"abi":[{"type":"constructor","inputs":[{"name":"_positionAndSalaryProof1024Verifier","type":"address","internalType":"contract PositionAndSalaryProof1024Verifier"},{"name":"_positionAndSalaryProof2048Verifier","type":"address","internalType":"contract PositionAndSalaryProof2048Verifier"}],"stateMutability":"nonpayable"},{"type":"function","name":"getPublicInputsOfAllProofs","inputs":[],"outputs":[{"name":"","type":"tuple[]","internalType":"struct DataType.PublicInput[]","components":[{"name":"jwtPubkeyModulusLimbs","type":"bytes32","internalType":"bytes32"},{"name":"domain","type":"bytes32","internalType":"bytes32"},{"name":"position","type":"bytes32","internalType":"bytes32"},{"name":"salary","type":"bytes32","internalType":"bytes32"},{"name":"workLifeBalance","type":"bytes32","internalType":"bytes32"},{"name":"cultureValues","type":"bytes32","internalType":"bytes32"},{"name":"careerGrowth","type":"bytes32","internalType":"bytes32"},{"name":"compensationBenefits","type":"bytes32","internalType":"bytes32"},{"name":"leadershipQuality","type":"bytes32","internalType":"bytes32"},{"name":"operationalEfficiency","type":"bytes32","internalType":"bytes32"},{"name":"nullifierHash","type":"bytes32","internalType":"bytes32"}]}],"stateMutability":"view"},{"type":"function","name":"getPublicInputsOfPositionAndSalaryProof","inputs":[{"name":"nullifierHash","type":"bytes32","internalType":"bytes32"}],"outputs":[{"name":"_publicInput","type":"tuple","internalType":"struct DataType.PublicInput","components":[{"name":"jwtPubkeyModulusLimbs","type":"bytes32","internalType":"bytes32"},{"name":"domain","type":"bytes32","internalType":"bytes32"},{"name":"position","type":"bytes32","internalType":"bytes32"},{"name":"salary","type":"bytes32","internalType":"bytes32"},{"name":"workLifeBalance","type":"bytes32","internalType":"bytes32"},{"name":"cultureValues","type":"bytes32","internalType":"bytes32"},{"name":"careerGrowth","type":"bytes32","internalType":"bytes32"},{"name":"compensationBenefits","type":"bytes32","internalType":"bytes32"},{"name":"leadershipQuality","type":"bytes32","internalType":"bytes32"},{"name":"operationalEfficiency","type":"bytes32","internalType":"bytes32"},{"name":"nullifierHash","type":"bytes32","internalType":"bytes32"}]}],"stateMutability":"view"},{"type":"function","name":"nullifiers","inputs":[{"name":"nullifierHash","type":"bytes32","internalType":"bytes32"}],"outputs":[{"name":"isNullified","type":"bool","internalType":"bool"}],"stateMutability":"view"},{"type":"function","name":"positionAndSalaryProof1024Verifier","inputs":[],"outputs":[{"name":"","type":"address","internalType":"contract PositionAndSalaryProof1024Verifier"}],"stateMutability":"view"},{"type":"function","name":"positionAndSalaryProof2048Verifier","inputs":[],"outputs":[{"name":"","type":"address","internalType":"contract PositionAndSalaryProof2048Verifier"}],"stateMutability":"view"},{"type":"function","name":"publicInputsOfAllProofs","inputs":[{"name":"","type":"uint256","internalType":"uint256"}],"outputs":[{"name":"jwtPubkeyModulusLimbs","type":"bytes32","internalType":"bytes32"},{"name":"domain","type":"bytes32","internalType":"bytes32"},{"name":"position","type":"bytes32","internalType":"bytes32"},{"name":"salary","type":"bytes32","internalType":"bytes32"},{"name":"workLifeBalance","type":"bytes32","internalType":"bytes32"},{"name":"cultureValues","type":"bytes32","internalType":"bytes32"},{"name":"careerGrowth","type":"bytes32","internalType":"bytes32"},{"name":"compensationBenefits","type":"bytes32","internalType":"bytes32"},{"name":"leadershipQuality","type":"bytes32","internalType":"bytes32"},{"name":"operationalEfficiency","type":"bytes32","internalType":"bytes32"},{"name":"nullifierHash","type":"bytes32","internalType":"bytes32"}],"stateMutability":"view"},{"type":"function","name":"publicInputsOfPositionAndSalaryProofs","inputs":[{"name":"nullifierHash","type":"bytes32","internalType":"bytes32"}],"outputs":[{"name":"jwtPubkeyModulusLimbs","type":"bytes32","internalType":"bytes32"},{"name":"domain","type":"bytes32","internalType":"bytes32"},{"name":"position","type":"bytes32","internalType":"bytes32"},{"name":"salary","type":"bytes32","internalType":"bytes32"},{"name":"workLifeBalance","type":"bytes32","internalType":"bytes32"},{"name":"cultureValues","type":"bytes32","internalType":"bytes32"},{"name":"careerGrowth","type":"bytes32","internalType":"bytes32"},{"name":"compensationBenefits","type":"bytes32","internalType":"bytes32"},{"name":"leadershipQuality","type":"bytes32","internalType":"bytes32"},{"name":"operationalEfficiency","type":"bytes32","internalType":"bytes32"},{"name":"nullifierHash","type":"bytes32","internalType":"bytes32"}],"stateMutability":"view"},{"type":"function","name":"recordPublicInputsOfPositionAndSalaryProof","inputs":[{"name":"proof","type":"bytes","internalType":"bytes"},{"name":"publicInputs","type":"bytes32[]","internalType":"bytes32[]"},{"name":"rsaSignatureLength","type":"uint16","internalType":"uint16"}],"outputs":[{"name":"","type":"bool","internalType":"bool"}],"stateMutability":"nonpayable"}],"bytecode":{"object":"0x6080604052348015600e575f5ffd5b50604051610d2b380380610d2b833981016040819052602b916070565b5f80546001600160a01b039384166001600160a01b0319918216179091556001805492909316911617905560a3565b6001600160a01b0381168114606d575f5ffd5b50565b5f5f604083850312156080575f5ffd5b8251608981605a565b6020840151909250609881605a565b809150509250929050565b610c7b806100b05f395ff3fe608060405234801561000f575f5ffd5b5060043610610085575f3560e01c80632997e86b116100585780632997e86b14610197578063471d8ece146101c957806352969531146101dc578063e9b4fbe7146101ef575f5ffd5b8063043ab03b146100895780630a0732fc146101455780630e3a067914610158578063217fc3f81461016d575b5f5ffd5b6100ed6100973660046109b3565b6002602052805f5260405f205f91509050805f01549080600101549080600201549080600301549080600401549080600501549080600601549080600701549080600801549080600901549080600a015490508b565b604080519b8c5260208c019a909a52988a01979097526060890195909552608088019390935260a087019190915260c086015260e0850152610100840152610120830152610140820152610160015b60405180910390f35b6100ed6101533660046109b3565b61020f565b610160610274565b60405161013c9190610a3c565b5f5461017f906001600160a01b031681565b6040516001600160a01b03909116815260200161013c565b6101b96101a53660046109b3565b60036020525f908152604090205460ff1681565b604051901515815260200161013c565b6101b96101d7366004610ae8565b61033e565b60015461017f906001600160a01b031681565b6102026101fd3660046109b3565b61086f565b60405161013c9190610b94565b6004818154811061021e575f80fd5b905f5260205f2090600b02015f91509050805f01549080600101549080600201549080600301549080600401549080600501549080600601549080600701549080600801549080600901549080600a015490508b565b60606004805480602002602001604051908101604052809291908181526020015f905b82821015610335578382905f5260205f2090600b0201604051806101600160405290815f8201548152602001600182015481526020016002820154815260200160038201548152602001600482015481526020016005820154815260200160068201548152602001600782015481526020016008820154815260200160098201548152602001600a8201548152505081526020019060010190610297565b50505050905090565b5f8161ffff16600903610450575f8054604051634f12461b60e11b81526001600160a01b0390911690639e248c3690610381908a908a908a908a90600401610ba9565b602060405180830381865afa15801561039c573d5f5f3e3d5ffd5b505050506040513d601f19601f820116820180604052508101906103c09190610c0b565b90508061044a5760405162461bcd60e51b815260206004820152604760248201527f4120676976656e20706f736974696f6e20616e642073616c6172792070726f6f60448201527f662028313032342d62697420525341207369676e617475726529206973206e6f6064820152661d081d985b1a5960ca1b608482015260a4015b60405180910390fd5b5061059e565b8161ffff1660120361055657600154604051634f12461b60e11b81525f916001600160a01b031690639e248c3690610492908a908a908a908a90600401610ba9565b602060405180830381865afa1580156104ad573d5f5f3e3d5ffd5b505050506040513d601f19601f820116820180604052508101906104d19190610c0b565b90508061044a5760405162461bcd60e51b815260206004820152604760248201527f4120676976656e20706f736974696f6e20616e642073616c6172792070726f6f60448201527f662028323034382d62697420525341207369676e617475726529206973206e6f6064820152661d081d985b1a5960ca1b608482015260a401610441565b60405162461bcd60e51b815260206004820181905260248201527f556e737570706f7274656420525341207369676e6174757265206c656e6774686044820152606401610441565b6105a6610964565b84845f8181106105b8576105b8610c31565b6020029190910135825250848460018181106105d6576105d6610c31565b90506020020135816020018181525050848460028181106105f9576105f9610c31565b60200291909101356040830152508484600381811061061a5761061a610c31565b60200291909101356060830152508484600481811061063b5761063b610c31565b60200291909101356080830152508484600581811061065c5761065c610c31565b602002919091013560a0830152508484600681811061067d5761067d610c31565b602002919091013560c0830152508484600781811061069e5761069e610c31565b602002919091013560e083015250848460088181106106bf576106bf610c31565b602002919091013561010083015250848460098181106106e1576106e1610c31565b6020029190910135610120830152508484600a81811061070357610703610c31565b90506020020135816101400181815250508060025f83610140015181526020019081526020015f205f820151815f01556020820151816001015560408201518160020155606082015181600301556080820151816004015560a0820151816005015560c0820151816006015560e082015181600701556101008201518160080155610120820151816009015561014082015181600a0155905050600160035f83610140015181526020019081526020015f205f6101000a81548160ff021916908315150217905550600481908060018154018082558091505060019003905f5260205f2090600b02015f909190919091505f820151815f01556020820151816001015560408201518160020155606082015181600301556080820151816004015560a0820151816005015560c0820151816006015560e082015181600701556101008201518160080155610120820151816009015561014082015181600a015550505095945050505050565b610877610964565b5f8281526003602052604090205460ff1615156001146108d95760405162461bcd60e51b815260206004820181905260248201527f4120676976656e206e756c6c69666965724861736820697320696e76616c69646044820152606401610441565b505f908152600260208181526040928390208351610160810185528154815260018201549281019290925291820154928101929092526003810154606083015260048101546080830152600581015460a0830152600681015460c0830152600781015460e083015260088101546101008301526009810154610120830152600a015461014082015290565b6040518061016001604052805f81526020015f81526020015f81526020015f81526020015f81526020015f81526020015f81526020015f81526020015f81526020015f81526020015f81525090565b5f602082840312156109c3575f5ffd5b5035919050565b805182526020810151602083015260408101516040830152606081015160608301526080810151608083015260a081015160a083015260c081015160c083015260e081015160e08301526101008101516101008301526101208101516101208301526101408101516101408301525050565b602080825282518282018190525f918401906040840190835b81811015610a7f57610a688385516109ca565b602093909301926101609290920191600101610a55565b509095945050505050565b5f5f83601f840112610a9a575f5ffd5b50813567ffffffffffffffff811115610ab1575f5ffd5b6020830191508360208260051b8501011115610acb575f5ffd5b9250929050565b803561ffff81168114610ae3575f5ffd5b919050565b5f5f5f5f5f60608688031215610afc575f5ffd5b853567ffffffffffffffff811115610b12575f5ffd5b8601601f81018813610b22575f5ffd5b803567ffffffffffffffff811115610b38575f5ffd5b886020828401011115610b49575f5ffd5b60209182019650945086013567ffffffffffffffff811115610b69575f5ffd5b610b7588828901610a8a565b9094509250610b88905060408701610ad2565b90509295509295909350565b6101608101610ba382846109ca565b92915050565b60408152836040820152838560608301375f60608583018101829052601f19601f8701168301838103820160208501529081018490526001600160fb1b03841115610bf2575f5ffd5b8360051b80866080840137016080019695505050505050565b5f60208284031215610c1b575f5ffd5b81518015158114610c2a575f5ffd5b9392505050565b634e487b7160e01b5f52603260045260245ffdfea2646970667358221220287d14ad1cd72b6177282f5f1db6f0fc87b8c236aeea209b5ab7e7f6ff07b3bf64736f6c634300081c0033","linkReferences":{}},"methodIdentifiers":{"getPublicInputsOfAllProofs()":"0e3a0679","getPublicInputsOfPositionAndSalaryProof(bytes32)":"e9b4fbe7","nullifiers(bytes32)":"2997e86b","positionAndSalaryProof1024Verifier()":"217fc3f8","positionAndSalaryProof2048Verifier()":"52969531","publicInputsOfAllProofs(uint256)":"0a0732fc","publicInputsOfPositionAndSalaryProofs(bytes32)":"043ab03b","recordPublicInputsOfPositionAndSalaryProof(bytes,bytes32[],uint16)":"471d8ece"},"id":0}