{"abi":[{"type":"constructor","inputs":[{"name":"_positionAndSalaryProof1024Verifier","type":"address","internalType":"contract PositionAndSalaryProof1024Verifier"},{"name":"_positionAndSalaryProof2048Verifier","type":"address","internalType":"contract PositionAndSalaryProof2048Verifier"}],"stateMutability":"nonpayable"},{"type":"function","name":"getPublicInputsOfAllProofs","inputs":[],"outputs":[{"name":"","type":"tuple[]","internalType":"struct DataType.PublicInput[]","components":[{"name":"domain","type":"string","internalType":"string"},{"name":"position","type":"string","internalType":"string"},{"name":"salary","type":"string","internalType":"string"},{"name":"workLifeBalance","type":"uint8","internalType":"uint8"},{"name":"cultureValues","type":"uint8","internalType":"uint8"},{"name":"careerGrowth","type":"uint8","internalType":"uint8"},{"name":"compensationBenefits","type":"uint8","internalType":"uint8"},{"name":"leadershipQuality","type":"uint8","internalType":"uint8"},{"name":"operationalEfficiency","type":"uint8","internalType":"uint8"},{"name":"nullifierHash","type":"bytes32","internalType":"bytes32"},{"name":"createdAt","type":"string","internalType":"string"}]}],"stateMutability":"view"},{"type":"function","name":"getPublicInputsOfPositionAndSalaryProof","inputs":[{"name":"nullifierHash","type":"bytes32","internalType":"bytes32"}],"outputs":[{"name":"_publicInput","type":"tuple","internalType":"struct DataType.PublicInput","components":[{"name":"domain","type":"string","internalType":"string"},{"name":"position","type":"string","internalType":"string"},{"name":"salary","type":"string","internalType":"string"},{"name":"workLifeBalance","type":"uint8","internalType":"uint8"},{"name":"cultureValues","type":"uint8","internalType":"uint8"},{"name":"careerGrowth","type":"uint8","internalType":"uint8"},{"name":"compensationBenefits","type":"uint8","internalType":"uint8"},{"name":"leadershipQuality","type":"uint8","internalType":"uint8"},{"name":"operationalEfficiency","type":"uint8","internalType":"uint8"},{"name":"nullifierHash","type":"bytes32","internalType":"bytes32"},{"name":"createdAt","type":"string","internalType":"string"}]}],"stateMutability":"view"},{"type":"function","name":"nullifiers","inputs":[{"name":"nullifierHash","type":"bytes32","internalType":"bytes32"}],"outputs":[{"name":"isNullified","type":"bool","internalType":"bool"}],"stateMutability":"view"},{"type":"function","name":"positionAndSalaryProof1024Verifier","inputs":[],"outputs":[{"name":"","type":"address","internalType":"contract PositionAndSalaryProof1024Verifier"}],"stateMutability":"view"},{"type":"function","name":"positionAndSalaryProof2048Verifier","inputs":[],"outputs":[{"name":"","type":"address","internalType":"contract PositionAndSalaryProof2048Verifier"}],"stateMutability":"view"},{"type":"function","name":"publicInputsOfAllProofs","inputs":[{"name":"","type":"uint256","internalType":"uint256"}],"outputs":[{"name":"domain","type":"string","internalType":"string"},{"name":"position","type":"string","internalType":"string"},{"name":"salary","type":"string","internalType":"string"},{"name":"workLifeBalance","type":"uint8","internalType":"uint8"},{"name":"cultureValues","type":"uint8","internalType":"uint8"},{"name":"careerGrowth","type":"uint8","internalType":"uint8"},{"name":"compensationBenefits","type":"uint8","internalType":"uint8"},{"name":"leadershipQuality","type":"uint8","internalType":"uint8"},{"name":"operationalEfficiency","type":"uint8","internalType":"uint8"},{"name":"nullifierHash","type":"bytes32","internalType":"bytes32"},{"name":"createdAt","type":"string","internalType":"string"}],"stateMutability":"view"},{"type":"function","name":"publicInputsOfPositionAndSalaryProofs","inputs":[{"name":"nullifierHash","type":"bytes32","internalType":"bytes32"}],"outputs":[{"name":"domain","type":"string","internalType":"string"},{"name":"position","type":"string","internalType":"string"},{"name":"salary","type":"string","internalType":"string"},{"name":"workLifeBalance","type":"uint8","internalType":"uint8"},{"name":"cultureValues","type":"uint8","internalType":"uint8"},{"name":"careerGrowth","type":"uint8","internalType":"uint8"},{"name":"compensationBenefits","type":"uint8","internalType":"uint8"},{"name":"leadershipQuality","type":"uint8","internalType":"uint8"},{"name":"operationalEfficiency","type":"uint8","internalType":"uint8"},{"name":"nullifierHash","type":"bytes32","internalType":"bytes32"},{"name":"createdAt","type":"string","internalType":"string"}],"stateMutability":"view"},{"type":"function","name":"recordPublicInputsOfPositionAndSalaryProof","inputs":[{"name":"proof","type":"bytes","internalType":"bytes"},{"name":"publicInputs","type":"bytes32[]","internalType":"bytes32[]"},{"name":"separatedPublicInputs","type":"tuple","internalType":"struct DataType.PublicInput","components":[{"name":"domain","type":"string","internalType":"string"},{"name":"position","type":"string","internalType":"string"},{"name":"salary","type":"string","internalType":"string"},{"name":"workLifeBalance","type":"uint8","internalType":"uint8"},{"name":"cultureValues","type":"uint8","internalType":"uint8"},{"name":"careerGrowth","type":"uint8","internalType":"uint8"},{"name":"compensationBenefits","type":"uint8","internalType":"uint8"},{"name":"leadershipQuality","type":"uint8","internalType":"uint8"},{"name":"operationalEfficiency","type":"uint8","internalType":"uint8"},{"name":"nullifierHash","type":"bytes32","internalType":"bytes32"},{"name":"createdAt","type":"string","internalType":"string"}]},{"name":"rsaSignatureLength","type":"uint8","internalType":"uint8"}],"outputs":[{"name":"","type":"bool","internalType":"bool"}],"stateMutability":"nonpayable"}],"bytecode":{"object":"0x6080604052348015600e575f5ffd5b50604051611822380380611822833981016040819052602b916070565b5f80546001600160a01b039384166001600160a01b0319918216179091556001805492909316911617905560a3565b6001600160a01b0381168114606d575f5ffd5b50565b5f5f604083850312156080575f5ffd5b8251608981605a565b6020840151909250609881605a565b809150509250929050565b611772806100b05f395ff3fe608060405234801561000f575f5ffd5b5060043610610085575f3560e01c80632997e86b116100585780632997e86b1461010e57806352969531146101405780638d9dca0e14610153578063e9b4fbe714610166575f5ffd5b8063043ab03b146100895780630a0732fc146100bc5780630e3a0679146100cf578063217fc3f8146100e4575b5f5ffd5b61009c610097366004610ffc565b610186565b6040516100b39b9a99989796959493929190611041565b60405180910390f35b61009c6100ca366004610ffc565b610409565b6100d7610437565b6040516100b391906111d7565b5f546100f6906001600160a01b031681565b6040516001600160a01b0390911681526020016100b3565b61013061011c366004610ffc565b60036020525f908152604090205460ff1681565b60405190151581526020016100b3565b6001546100f6906001600160a01b031681565b610130610161366004611494565b610735565b610179610174366004610ffc565b610c77565b6040516100b39190611564565b60026020525f90815260409020805481906101a09061157d565b80601f01602080910402602001604051908101604052809291908181526020018280546101cc9061157d565b80156102175780601f106101ee57610100808354040283529160200191610217565b820191905f5260205f20905b8154815290600101906020018083116101fa57829003601f168201915b50505050509080600101805461022c9061157d565b80601f01602080910402602001604051908101604052809291908181526020018280546102589061157d565b80156102a35780601f1061027a576101008083540402835291602001916102a3565b820191905f5260205f20905b81548152906001019060200180831161028657829003601f168201915b5050505050908060020180546102b89061157d565b80601f01602080910402602001604051908101604052809291908181526020018280546102e49061157d565b801561032f5780601f106103065761010080835404028352916020019161032f565b820191905f5260205f20905b81548152906001019060200180831161031257829003601f168201915b5050505060038301546004840154600585018054949560ff80851696610100860482169650620100008604821695630100000081048316956401000000008204841695600160281b90920490931693916103889061157d565b80601f01602080910402602001604051908101604052809291908181526020018280546103b49061157d565b80156103ff5780601f106103d6576101008083540402835291602001916103ff565b820191905f5260205f20905b8154815290600101906020018083116103e257829003601f168201915b505050505090508b565b60048181548110610418575f80fd5b905f5260205f2090600602015f91509050805f0180546101a09061157d565b60606004805480602002602001604051908101604052809291908181526020015f905b8282101561072c578382905f5260205f209060060201604051806101600160405290815f8201805461048b9061157d565b80601f01602080910402602001604051908101604052809291908181526020018280546104b79061157d565b80156105025780601f106104d957610100808354040283529160200191610502565b820191905f5260205f20905b8154815290600101906020018083116104e557829003601f168201915b5050505050815260200160018201805461051b9061157d565b80601f01602080910402602001604051908101604052809291908181526020018280546105479061157d565b80156105925780601f1061056957610100808354040283529160200191610592565b820191905f5260205f20905b81548152906001019060200180831161057557829003601f168201915b505050505081526020016002820180546105ab9061157d565b80601f01602080910402602001604051908101604052809291908181526020018280546105d79061157d565b80156106225780601f106105f957610100808354040283529160200191610622565b820191905f5260205f20905b81548152906001019060200180831161060557829003601f168201915b5050509183525050600382015460ff8082166020840152610100808304821660408501526201000083048216606085015263010000008304821660808501526401000000008304821660a0850152600160281b9092041660c0830152600483015460e083015260058301805491909201919061069d9061157d565b80601f01602080910402602001604051908101604052809291908181526020018280546106c99061157d565b80156107145780601f106106eb57610100808354040283529160200191610714565b820191905f5260205f20905b8154815290600101906020018083116106f757829003601f168201915b5050505050815250508152602001906001019061045a565b50505050905090565b5f8160ff16600903610846575f8054604051634f12461b60e11b81526001600160a01b0390911690639e248c3690610777908b908b908b908b906004016115b5565b602060405180830381865afa158015610792573d5f5f3e3d5ffd5b505050506040513d601f19601f820116820180604052508101906107b69190611617565b9050806108405760405162461bcd60e51b815260206004820152604760248201527f4120676976656e20706f736974696f6e20616e642073616c6172792070726f6f60448201527f662028313032342d62697420525341207369676e617475726529206973206e6f6064820152661d081d985b1a5960ca1b608482015260a4015b60405180910390fd5b50610993565b8160ff1660120361094b57600154604051634f12461b60e11b81525f916001600160a01b031690639e248c3690610887908b908b908b908b906004016115b5565b602060405180830381865afa1580156108a2573d5f5f3e3d5ffd5b505050506040513d601f19601f820116820180604052508101906108c69190611617565b9050806108405760405162461bcd60e51b815260206004820152604760248201527f4120676976656e20706f736974696f6e20616e642073616c6172792070726f6f60448201527f662028323034382d62697420525341207369676e617475726529206973206e6f6064820152661d081d985b1a5960ca1b608482015260a401610837565b60405162461bcd60e51b815260206004820181905260248201527f556e737570706f7274656420525341207369676e6174757265206c656e6774686044820152606401610837565b61099b610fa2565b83518152602080850151818301526040808601518184015260608087015160ff9081169185019190915260808088015182169085015260a08088015182169085015260c08088015182169085015260e08088015182169085015261010080880151909116908401526101208087015190840181905261014080880151908501525f9081526002909252902081518291908190610a379082611682565b5060208201516001820190610a4c9082611682565b5060408201516002820190610a619082611682565b506060820151600382018054608085015160a086015160c087015160e0880151610100808a015160ff98891661ffff1990971696909617948816029390931763ffff00001916620100009287169290920263ff0000001916919091176301000000918616919091021765ffff0000000019166401000000009185169190910265ff0000000000191617600160281b939091169290920291909117905561012082015160048201556101408201516005820190610b1d9082611682565b5050506101208101515f908152600360205260408120805460ff19166001908117909155600480549182018155909152815182916006027f8a35acfbc15ff81a39ae7d344fd709f28e8600b4aa8c65c6b64bfe7fe36bd19b01908190610b839082611682565b5060208201516001820190610b989082611682565b5060408201516002820190610bad9082611682565b506060820151600382018054608085015160a086015160c087015160e0880151610100808a015160ff98891661ffff1990971696909617948816029390931763ffff00001916620100009287169290920263ff0000001916919091176301000000918616919091021765ffff0000000019166401000000009185169190910265ff0000000000191617600160281b939091169290920291909117905561012082015160048201556101408201516005820190610c699082611682565b505050509695505050505050565b610c7f610fa2565b5f8281526003602052604090205460ff161515600114610ce15760405162461bcd60e51b815260206004820181905260248201527f4120676976656e206e756c6c69666965724861736820697320696e76616c69646044820152606401610837565b5f828152600260205260409081902081516101608101909252805482908290610d099061157d565b80601f0160208091040260200160405190810160405280929190818152602001828054610d359061157d565b8015610d805780601f10610d5757610100808354040283529160200191610d80565b820191905f5260205f20905b815481529060010190602001808311610d6357829003601f168201915b50505050508152602001600182018054610d999061157d565b80601f0160208091040260200160405190810160405280929190818152602001828054610dc59061157d565b8015610e105780601f10610de757610100808354040283529160200191610e10565b820191905f5260205f20905b815481529060010190602001808311610df357829003601f168201915b50505050508152602001600282018054610e299061157d565b80601f0160208091040260200160405190810160405280929190818152602001828054610e559061157d565b8015610ea05780601f10610e7757610100808354040283529160200191610ea0565b820191905f5260205f20905b815481529060010190602001808311610e8357829003601f168201915b5050509183525050600382015460ff8082166020840152610100808304821660408501526201000083048216606085015263010000008304821660808501526401000000008304821660a0850152600160281b9092041660c0830152600483015460e0830152600583018054919092019190610f1b9061157d565b80601f0160208091040260200160405190810160405280929190818152602001828054610f479061157d565b8015610f925780601f10610f6957610100808354040283529160200191610f92565b820191905f5260205f20905b815481529060010190602001808311610f7557829003601f168201915b5050505050815250509050919050565b60408051610160810182526060808252602082018190529181018290525f8282018190526080820181905260a0820181905260c0820181905260e08201819052610100820181905261012082015261014081019190915290565b5f6020828403121561100c575f5ffd5b5035919050565b5f81518084528060208401602086015e5f602082860101526020601f19601f83011685010191505092915050565b61016081525f61105561016083018e611013565b8281036020840152611067818e611013565b9050828103604084015261107b818d611013565b60ff8c811660608601528b811660808601528a811660a0860152891660c0850152905060ff871660e084015260ff8616610100840152846101208401528281036101408401526110cb8185611013565b9e9d5050505050505050505050505050565b5f815161016084526110f3610160850182611013565b90506020830151848203602086015261110c8282611013565b915050604083015184820360408601526111268282611013565b915050606083015161113d606086018260ff169052565b506080830151611152608086018260ff169052565b5060a083015161116760a086018260ff169052565b5060c083015161117c60c086018260ff169052565b5060e083015161119160e086018260ff169052565b506101008301516111a861010086018260ff169052565b506101208301516101208501526101408301518482036101408601526111ce8282611013565b95945050505050565b5f602082016020835280845180835260408501915060408160051b8601019250602086015f5b8281101561122e57603f198786030184526112198583516110dd565b945060209384019391909101906001016111fd565b50929695505050505050565b5f5f83601f84011261124a575f5ffd5b5081356001600160401b03811115611260575f5ffd5b6020830191508360208260051b850101111561127a575f5ffd5b9250929050565b634e487b7160e01b5f52604160045260245ffd5b60405161016081016001600160401b03811182821017156112b8576112b8611281565b60405290565b5f82601f8301126112cd575f5ffd5b81356001600160401b038111156112e6576112e6611281565b604051601f8201601f19908116603f011681016001600160401b038111828210171561131457611314611281565b60405281815283820160200185101561132b575f5ffd5b816020850160208301375f918101602001919091529392505050565b803560ff81168114611357575f5ffd5b919050565b5f610160828403121561136d575f5ffd5b611375611295565b905081356001600160401b0381111561138c575f5ffd5b611398848285016112be565b82525060208201356001600160401b038111156113b3575f5ffd5b6113bf848285016112be565b60208301525060408201356001600160401b038111156113dd575f5ffd5b6113e9848285016112be565b6040830152506113fb60608301611347565b606082015261140c60808301611347565b608082015261141d60a08301611347565b60a082015261142e60c08301611347565b60c082015261143f60e08301611347565b60e08201526114516101008301611347565b61010082015261012082810135908201526101408201356001600160401b0381111561147b575f5ffd5b611487848285016112be565b6101408301525092915050565b5f5f5f5f5f5f608087890312156114a9575f5ffd5b86356001600160401b038111156114be575f5ffd5b8701601f810189136114ce575f5ffd5b80356001600160401b038111156114e3575f5ffd5b8960208284010111156114f4575f5ffd5b6020918201975095508701356001600160401b03811115611513575f5ffd5b61151f89828a0161123a565b90955093505060408701356001600160401b0381111561153d575f5ffd5b61154989828a0161135c565b92505061155860608801611347565b90509295509295509295565b602081525f61157660208301846110dd565b9392505050565b600181811c9082168061159157607f821691505b6020821081036115af57634e487b7160e01b5f52602260045260245ffd5b50919050565b60408152836040820152838560608301375f60608583018101829052601f19601f8701168301838103820160208501529081018490526001600160fb1b038411156115fe575f5ffd5b8360051b80866080840137016080019695505050505050565b5f60208284031215611627575f5ffd5b81518015158114611576575f5ffd5b601f82111561167d57805f5260205f20601f840160051c8101602085101561165b5750805b601f840160051c820191505b8181101561167a575f8155600101611667565b50505b505050565b81516001600160401b0381111561169b5761169b611281565b6116af816116a9845461157d565b84611636565b6020601f8211600181146116e1575f83156116ca5750848201515b5f19600385901b1c1916600184901b17845561167a565b5f84815260208120601f198516915b8281101561171057878501518255602094850194600190920191016116f0565b508482101561172d57868401515f19600387901b60f8161c191681555b50505050600190811b0190555056fea2646970667358221220013ff901614ed8cb6fcc62a27b3f37dbe5d99dd50da95f7960d50db2c4cc422e64736f6c634300081c0033","linkReferences":{}},"methodIdentifiers":{"getPublicInputsOfAllProofs()":"0e3a0679","getPublicInputsOfPositionAndSalaryProof(bytes32)":"e9b4fbe7","nullifiers(bytes32)":"2997e86b","positionAndSalaryProof1024Verifier()":"217fc3f8","positionAndSalaryProof2048Verifier()":"52969531","publicInputsOfAllProofs(uint256)":"0a0732fc","publicInputsOfPositionAndSalaryProofs(bytes32)":"043ab03b","recordPublicInputsOfPositionAndSalaryProof(bytes,bytes32[],(string,string,string,uint8,uint8,uint8,uint8,uint8,uint8,bytes32,string),uint8)":"8d9dca0e"},"id":0}