{"abi":[{"type":"constructor","inputs":[{"name":"_positionAndSalaryProof1024Verifier","type":"address","internalType":"contract PositionAndSalaryProof1024Verifier"},{"name":"_positionAndSalaryProof2048Verifier","type":"address","internalType":"contract PositionAndSalaryProof2048Verifier"}],"stateMutability":"nonpayable"},{"type":"function","name":"getPublicInputsOfAllProofs","inputs":[],"outputs":[{"name":"","type":"tuple[]","internalType":"struct DataType.PublicInput[]","components":[{"name":"domain","type":"string","internalType":"string"},{"name":"position","type":"string","internalType":"string"},{"name":"salary","type":"string","internalType":"string"},{"name":"workLifeBalance","type":"uint8","internalType":"uint8"},{"name":"cultureValues","type":"uint8","internalType":"uint8"},{"name":"careerGrowth","type":"uint8","internalType":"uint8"},{"name":"compensationBenefits","type":"uint8","internalType":"uint8"},{"name":"leadershipQuality","type":"uint8","internalType":"uint8"},{"name":"operationalEfficiency","type":"uint8","internalType":"uint8"},{"name":"nullifierHash","type":"bytes32","internalType":"bytes32"},{"name":"createdAt","type":"uint256","internalType":"uint256"}]}],"stateMutability":"view"},{"type":"function","name":"getPublicInputsOfPositionAndSalaryProof","inputs":[{"name":"nullifierHash","type":"bytes32","internalType":"bytes32"}],"outputs":[{"name":"_publicInput","type":"tuple","internalType":"struct DataType.PublicInput","components":[{"name":"domain","type":"string","internalType":"string"},{"name":"position","type":"string","internalType":"string"},{"name":"salary","type":"string","internalType":"string"},{"name":"workLifeBalance","type":"uint8","internalType":"uint8"},{"name":"cultureValues","type":"uint8","internalType":"uint8"},{"name":"careerGrowth","type":"uint8","internalType":"uint8"},{"name":"compensationBenefits","type":"uint8","internalType":"uint8"},{"name":"leadershipQuality","type":"uint8","internalType":"uint8"},{"name":"operationalEfficiency","type":"uint8","internalType":"uint8"},{"name":"nullifierHash","type":"bytes32","internalType":"bytes32"},{"name":"createdAt","type":"uint256","internalType":"uint256"}]}],"stateMutability":"view"},{"type":"function","name":"nullifiers","inputs":[{"name":"nullifierHash","type":"bytes32","internalType":"bytes32"}],"outputs":[{"name":"isNullified","type":"bool","internalType":"bool"}],"stateMutability":"view"},{"type":"function","name":"positionAndSalaryProof1024Verifier","inputs":[],"outputs":[{"name":"","type":"address","internalType":"contract PositionAndSalaryProof1024Verifier"}],"stateMutability":"view"},{"type":"function","name":"positionAndSalaryProof2048Verifier","inputs":[],"outputs":[{"name":"","type":"address","internalType":"contract PositionAndSalaryProof2048Verifier"}],"stateMutability":"view"},{"type":"function","name":"publicInputsOfAllProofs","inputs":[{"name":"","type":"uint256","internalType":"uint256"}],"outputs":[{"name":"domain","type":"string","internalType":"string"},{"name":"position","type":"string","internalType":"string"},{"name":"salary","type":"string","internalType":"string"},{"name":"workLifeBalance","type":"uint8","internalType":"uint8"},{"name":"cultureValues","type":"uint8","internalType":"uint8"},{"name":"careerGrowth","type":"uint8","internalType":"uint8"},{"name":"compensationBenefits","type":"uint8","internalType":"uint8"},{"name":"leadershipQuality","type":"uint8","internalType":"uint8"},{"name":"operationalEfficiency","type":"uint8","internalType":"uint8"},{"name":"nullifierHash","type":"bytes32","internalType":"bytes32"},{"name":"createdAt","type":"uint256","internalType":"uint256"}],"stateMutability":"view"},{"type":"function","name":"publicInputsOfPositionAndSalaryProofs","inputs":[{"name":"nullifierHash","type":"bytes32","internalType":"bytes32"}],"outputs":[{"name":"domain","type":"string","internalType":"string"},{"name":"position","type":"string","internalType":"string"},{"name":"salary","type":"string","internalType":"string"},{"name":"workLifeBalance","type":"uint8","internalType":"uint8"},{"name":"cultureValues","type":"uint8","internalType":"uint8"},{"name":"careerGrowth","type":"uint8","internalType":"uint8"},{"name":"compensationBenefits","type":"uint8","internalType":"uint8"},{"name":"leadershipQuality","type":"uint8","internalType":"uint8"},{"name":"operationalEfficiency","type":"uint8","internalType":"uint8"},{"name":"nullifierHash","type":"bytes32","internalType":"bytes32"},{"name":"createdAt","type":"uint256","internalType":"uint256"}],"stateMutability":"view"},{"type":"function","name":"recordPublicInputsOfPositionAndSalaryProof","inputs":[{"name":"proof","type":"bytes","internalType":"bytes"},{"name":"publicInputs","type":"bytes32[]","internalType":"bytes32[]"},{"name":"separatedPublicInputs","type":"tuple","internalType":"struct DataType.PublicInput","components":[{"name":"domain","type":"string","internalType":"string"},{"name":"position","type":"string","internalType":"string"},{"name":"salary","type":"string","internalType":"string"},{"name":"workLifeBalance","type":"uint8","internalType":"uint8"},{"name":"cultureValues","type":"uint8","internalType":"uint8"},{"name":"careerGrowth","type":"uint8","internalType":"uint8"},{"name":"compensationBenefits","type":"uint8","internalType":"uint8"},{"name":"leadershipQuality","type":"uint8","internalType":"uint8"},{"name":"operationalEfficiency","type":"uint8","internalType":"uint8"},{"name":"nullifierHash","type":"bytes32","internalType":"bytes32"},{"name":"createdAt","type":"uint256","internalType":"uint256"}]},{"name":"rsaSignatureLength","type":"uint8","internalType":"uint8"}],"outputs":[{"name":"","type":"bool","internalType":"bool"}],"stateMutability":"nonpayable"}],"bytecode":{"object":"0x6080604052348015600e575f5ffd5b5060405161165b38038061165b833981016040819052602b916070565b5f80546001600160a01b039384166001600160a01b0319918216179091556001805492909316911617905560a3565b6001600160a01b0381168114606d575f5ffd5b50565b5f5f604083850312156080575f5ffd5b8251608981605a565b6020840151909250609881605a565b809150509250929050565b6115ab806100b05f395ff3fe608060405234801561000f575f5ffd5b5060043610610085575f3560e01c80632997e86b116100585780632997e86b1461010e5780635296953114610140578063a6a7af6414610153578063e9b4fbe714610166575f5ffd5b8063043ab03b146100895780630a0732fc146100bc5780630e3a0679146100cf578063217fc3f8146100e4575b5f5ffd5b61009c610097366004610e5b565b610186565b6040516100b39b9a99989796959493929190610ea0565b60405180910390f35b61009c6100ca366004610e5b565b610381565b6100d76103af565b6040516100b39190611023565b5f546100f6906001600160a01b031681565b6040516001600160a01b0390911681526020016100b3565b61013061011c366004610e5b565b60036020525f908152604090205460ff1681565b60405190151581526020016100b3565b6001546100f6906001600160a01b031681565b6101306101613660046112c8565b610628565b610179610174366004610e5b565b610b59565b6040516100b3919061139c565b60026020525f90815260409020805481906101a0906113b5565b80601f01602080910402602001604051908101604052809291908181526020018280546101cc906113b5565b80156102175780601f106101ee57610100808354040283529160200191610217565b820191905f5260205f20905b8154815290600101906020018083116101fa57829003601f168201915b50505050509080600101805461022c906113b5565b80601f0160208091040260200160405190810160405280929190818152602001828054610258906113b5565b80156102a35780601f1061027a576101008083540402835291602001916102a3565b820191905f5260205f20905b81548152906001019060200180831161028657829003601f168201915b5050505050908060020180546102b8906113b5565b80601f01602080910402602001604051908101604052809291908181526020018280546102e4906113b5565b801561032f5780601f106103065761010080835404028352916020019161032f565b820191905f5260205f20905b81548152906001019060200180831161031257829003601f168201915b5050505060038301546004840154600590940154929360ff80831694610100840482169450620100008404821693630100000081048316936401000000008204841693600160281b909204909116918b565b60048181548110610390575f80fd5b905f5260205f2090600602015f91509050805f0180546101a0906113b5565b60606004805480602002602001604051908101604052809291908181526020015f905b8282101561061f578382905f5260205f209060060201604051806101600160405290815f82018054610403906113b5565b80601f016020809104026020016040519081016040528092919081815260200182805461042f906113b5565b801561047a5780601f106104515761010080835404028352916020019161047a565b820191905f5260205f20905b81548152906001019060200180831161045d57829003601f168201915b50505050508152602001600182018054610493906113b5565b80601f01602080910402602001604051908101604052809291908181526020018280546104bf906113b5565b801561050a5780601f106104e15761010080835404028352916020019161050a565b820191905f5260205f20905b8154815290600101906020018083116104ed57829003601f168201915b50505050508152602001600282018054610523906113b5565b80601f016020809104026020016040519081016040528092919081815260200182805461054f906113b5565b801561059a5780601f106105715761010080835404028352916020019161059a565b820191905f5260205f20905b81548152906001019060200180831161057d57829003601f168201915b5050509183525050600382015460ff808216602080850191909152610100808404831660408601526201000084048316606086015263010000008404831660808601526401000000008404831660a0860152600160281b90930490911660c0840152600484015460e084015260059093015491015290825260019290920191016103d2565b50505050905090565b5f8160ff16600903610739575f8054604051634f12461b60e11b81526001600160a01b0390911690639e248c369061066a908b908b908b908b906004016113ed565b602060405180830381865afa158015610685573d5f5f3e3d5ffd5b505050506040513d601f19601f820116820180604052508101906106a9919061144f565b9050806107335760405162461bcd60e51b815260206004820152604760248201527f4120676976656e20706f736974696f6e20616e642073616c6172792070726f6f60448201527f662028313032342d62697420525341207369676e617475726529206973206e6f6064820152661d081d985b1a5960ca1b608482015260a4015b60405180910390fd5b50610886565b8160ff1660120361083e57600154604051634f12461b60e11b81525f916001600160a01b031690639e248c369061077a908b908b908b908b906004016113ed565b602060405180830381865afa158015610795573d5f5f3e3d5ffd5b505050506040513d601f19601f820116820180604052508101906107b9919061144f565b9050806107335760405162461bcd60e51b815260206004820152604760248201527f4120676976656e20706f736974696f6e20616e642073616c6172792070726f6f60448201527f662028323034382d62697420525341207369676e617475726529206973206e6f6064820152661d081d985b1a5960ca1b608482015260a40161072a565b60405162461bcd60e51b815260206004820181905260248201527f556e737570706f7274656420525341207369676e6174757265206c656e677468604482015260640161072a565b61088e610df7565b83518152602080850151818301526040808601518184015260608087015160ff9081169185019190915260808088015182169085015260a08088015182169085015260c08088015182169085015260e080880151821690850152610100808801519091169084015261012080870151908401819052426101408501525f908152600290925290208151829190819061092690826114ba565b506020820151600182019061093b90826114ba565b506040820151600282019061095090826114ba565b50606082015160038083018054608086015160a087015160c088015160e0890151610100808b015160ff908116600160281b0265ff000000000019938216640100000000029390931665ffff000000001994821663010000000263ff0000001996831662010000029690961663ffff00001997831690930261ffff1990981691909a1617959095179390931693909317179190911693909317929092179091556101208084015160048085019190915561014090940151600590930192909255908301515f90815260209190915260408120805460ff1916600190811790915582549081018355919052815182916006027f8a35acfbc15ff81a39ae7d344fd709f28e8600b4aa8c65c6b64bfe7fe36bd19b01908190610a7090826114ba565b5060208201516001820190610a8590826114ba565b5060408201516002820190610a9a90826114ba565b506060820151600382018054608085015160a086015160c087015160e0880151610100808a015160ff98891661ffff1990971696909617948816029390931763ffff00001916620100009287169290920263ff0000001916919091176301000000918616919091021765ffff0000000019166401000000009185169190910265ff0000000000191617600160281b9390911692909202919091179055610120820151600482015561014090910151600590910155509695505050505050565b610b61610df7565b5f8281526003602052604090205460ff161515600114610bc35760405162461bcd60e51b815260206004820181905260248201527f4120676976656e206e756c6c69666965724861736820697320696e76616c6964604482015260640161072a565b5f828152600260205260409081902081516101608101909252805482908290610beb906113b5565b80601f0160208091040260200160405190810160405280929190818152602001828054610c17906113b5565b8015610c625780601f10610c3957610100808354040283529160200191610c62565b820191905f5260205f20905b815481529060010190602001808311610c4557829003601f168201915b50505050508152602001600182018054610c7b906113b5565b80601f0160208091040260200160405190810160405280929190818152602001828054610ca7906113b5565b8015610cf25780601f10610cc957610100808354040283529160200191610cf2565b820191905f5260205f20905b815481529060010190602001808311610cd557829003601f168201915b50505050508152602001600282018054610d0b906113b5565b80601f0160208091040260200160405190810160405280929190818152602001828054610d37906113b5565b8015610d825780601f10610d5957610100808354040283529160200191610d82565b820191905f5260205f20905b815481529060010190602001808311610d6557829003601f168201915b5050509183525050600382015460ff8082166020840152610100808304821660408501526201000083048216606085015263010000008304821660808501526401000000008304821660a0850152600160281b9092041660c0830152600483015460e083015260059092015491015292915050565b6040518061016001604052806060815260200160608152602001606081526020015f60ff1681526020015f60ff1681526020015f60ff1681526020015f60ff1681526020015f60ff1681526020015f60ff1681526020015f81526020015f81525090565b5f60208284031215610e6b575f5ffd5b5035919050565b5f81518084528060208401602086015e5f602082860101526020601f19601f83011685010191505092915050565b61016081525f610eb461016083018e610e72565b8281036020840152610ec6818e610e72565b90508281036040840152610eda818d610e72565b91505060ff8a16606083015260ff8916608083015260ff881660a0830152610f0760c083018860ff169052565b60ff861660e083015260ff851661010083015261012082019390935261014001529998505050505050505050565b5f81516101608452610f4b610160850182610e72565b905060208301518482036020860152610f648282610e72565b91505060408301518482036040860152610f7e8282610e72565b9150506060830151610f95606086018260ff169052565b506080830151610faa608086018260ff169052565b5060a0830151610fbf60a086018260ff169052565b5060c0830151610fd460c086018260ff169052565b5060e0830151610fe960e086018260ff169052565b5061010083015161100061010086018260ff169052565b506101208301516101208501526101408301516101408501528091505092915050565b5f602082016020835280845180835260408501915060408160051b8601019250602086015f5b8281101561107a57603f19878603018452611065858351610f35565b94506020938401939190910190600101611049565b50929695505050505050565b5f5f83601f840112611096575f5ffd5b50813567ffffffffffffffff8111156110ad575f5ffd5b6020830191508360208260051b85010111156110c7575f5ffd5b9250929050565b634e487b7160e01b5f52604160045260245ffd5b604051610160810167ffffffffffffffff81118282101715611106576111066110ce565b60405290565b5f82601f83011261111b575f5ffd5b813567ffffffffffffffff811115611135576111356110ce565b604051601f8201601f19908116603f0116810167ffffffffffffffff81118282101715611164576111646110ce565b60405281815283820160200185101561117b575f5ffd5b816020850160208301375f918101602001919091529392505050565b803560ff811681146111a7575f5ffd5b919050565b5f61016082840312156111bd575f5ffd5b6111c56110e2565b9050813567ffffffffffffffff8111156111dd575f5ffd5b6111e98482850161110c565b825250602082013567ffffffffffffffff811115611205575f5ffd5b6112118482850161110c565b602083015250604082013567ffffffffffffffff811115611230575f5ffd5b61123c8482850161110c565b60408301525061124e60608301611197565b606082015261125f60808301611197565b608082015261127060a08301611197565b60a082015261128160c08301611197565b60c082015261129260e08301611197565b60e08201526112a46101008301611197565b61010082015261012082810135908201526101409182013591810191909152919050565b5f5f5f5f5f5f608087890312156112dd575f5ffd5b863567ffffffffffffffff8111156112f3575f5ffd5b8701601f81018913611303575f5ffd5b803567ffffffffffffffff811115611319575f5ffd5b89602082840101111561132a575f5ffd5b60209182019750955087013567ffffffffffffffff81111561134a575f5ffd5b61135689828a01611086565b909550935050604087013567ffffffffffffffff811115611375575f5ffd5b61138189828a016111ac565b92505061139060608801611197565b90509295509295509295565b602081525f6113ae6020830184610f35565b9392505050565b600181811c908216806113c957607f821691505b6020821081036113e757634e487b7160e01b5f52602260045260245ffd5b50919050565b60408152836040820152838560608301375f60608583018101829052601f19601f8701168301838103820160208501529081018490526001600160fb1b03841115611436575f5ffd5b8360051b80866080840137016080019695505050505050565b5f6020828403121561145f575f5ffd5b815180151581146113ae575f5ffd5b601f8211156114b557805f5260205f20601f840160051c810160208510156114935750805b601f840160051c820191505b818110156114b2575f815560010161149f565b50505b505050565b815167ffffffffffffffff8111156114d4576114d46110ce565b6114e8816114e284546113b5565b8461146e565b6020601f82116001811461151a575f83156115035750848201515b5f19600385901b1c1916600184901b1784556114b2565b5f84815260208120601f198516915b828110156115495787850151825560209485019460019092019101611529565b508482101561156657868401515f19600387901b60f8161c191681555b50505050600190811b0190555056fea26469706673582212204440595329fb1d7a436f1da08810388f0fbcf8dc26b7832a3bd54789e4cd277d64736f6c634300081c0033","linkReferences":{}},"methodIdentifiers":{"getPublicInputsOfAllProofs()":"0e3a0679","getPublicInputsOfPositionAndSalaryProof(bytes32)":"e9b4fbe7","nullifiers(bytes32)":"2997e86b","positionAndSalaryProof1024Verifier()":"217fc3f8","positionAndSalaryProof2048Verifier()":"52969531","publicInputsOfAllProofs(uint256)":"0a0732fc","publicInputsOfPositionAndSalaryProofs(bytes32)":"043ab03b","recordPublicInputsOfPositionAndSalaryProof(bytes,bytes32[],(string,string,string,uint8,uint8,uint8,uint8,uint8,uint8,bytes32,uint256),uint8)":"a6a7af64"},"id":0}