{"abi":[{"type":"constructor","inputs":[{"name":"_positionAndSalaryProof1024Verifier","type":"address","internalType":"contract PositionAndSalaryProof1024Verifier"},{"name":"_positionAndSalaryProof2048Verifier","type":"address","internalType":"contract PositionAndSalaryProof2048Verifier"}],"stateMutability":"nonpayable"},{"type":"function","name":"getPublicInputsOfAllProofs","inputs":[],"outputs":[{"name":"","type":"tuple[]","internalType":"struct DataType.PublicInput[]","components":[{"name":"jwtPubkeyModulusLimbs","type":"string","internalType":"string"},{"name":"domain","type":"string","internalType":"string"},{"name":"position","type":"string","internalType":"string"},{"name":"salary","type":"string","internalType":"string"},{"name":"workLifeBalance","type":"uint8","internalType":"uint8"},{"name":"cultureValues","type":"uint8","internalType":"uint8"},{"name":"careerGrowth","type":"uint8","internalType":"uint8"},{"name":"compensationBenefits","type":"uint8","internalType":"uint8"},{"name":"leadershipQuality","type":"uint8","internalType":"uint8"},{"name":"operationalEfficiency","type":"uint8","internalType":"uint8"},{"name":"nullifierHash","type":"bytes32","internalType":"bytes32"}]}],"stateMutability":"view"},{"type":"function","name":"getPublicInputsOfPositionAndSalaryProof","inputs":[{"name":"nullifierHash","type":"bytes32","internalType":"bytes32"}],"outputs":[{"name":"_publicInput","type":"tuple","internalType":"struct DataType.PublicInput","components":[{"name":"jwtPubkeyModulusLimbs","type":"string","internalType":"string"},{"name":"domain","type":"string","internalType":"string"},{"name":"position","type":"string","internalType":"string"},{"name":"salary","type":"string","internalType":"string"},{"name":"workLifeBalance","type":"uint8","internalType":"uint8"},{"name":"cultureValues","type":"uint8","internalType":"uint8"},{"name":"careerGrowth","type":"uint8","internalType":"uint8"},{"name":"compensationBenefits","type":"uint8","internalType":"uint8"},{"name":"leadershipQuality","type":"uint8","internalType":"uint8"},{"name":"operationalEfficiency","type":"uint8","internalType":"uint8"},{"name":"nullifierHash","type":"bytes32","internalType":"bytes32"}]}],"stateMutability":"view"},{"type":"function","name":"nullifiers","inputs":[{"name":"nullifierHash","type":"bytes32","internalType":"bytes32"}],"outputs":[{"name":"isNullified","type":"bool","internalType":"bool"}],"stateMutability":"view"},{"type":"function","name":"positionAndSalaryProof1024Verifier","inputs":[],"outputs":[{"name":"","type":"address","internalType":"contract PositionAndSalaryProof1024Verifier"}],"stateMutability":"view"},{"type":"function","name":"positionAndSalaryProof2048Verifier","inputs":[],"outputs":[{"name":"","type":"address","internalType":"contract PositionAndSalaryProof2048Verifier"}],"stateMutability":"view"},{"type":"function","name":"publicInputsOfAllProofs","inputs":[{"name":"","type":"uint256","internalType":"uint256"}],"outputs":[{"name":"jwtPubkeyModulusLimbs","type":"string","internalType":"string"},{"name":"domain","type":"string","internalType":"string"},{"name":"position","type":"string","internalType":"string"},{"name":"salary","type":"string","internalType":"string"},{"name":"workLifeBalance","type":"uint8","internalType":"uint8"},{"name":"cultureValues","type":"uint8","internalType":"uint8"},{"name":"careerGrowth","type":"uint8","internalType":"uint8"},{"name":"compensationBenefits","type":"uint8","internalType":"uint8"},{"name":"leadershipQuality","type":"uint8","internalType":"uint8"},{"name":"operationalEfficiency","type":"uint8","internalType":"uint8"},{"name":"nullifierHash","type":"bytes32","internalType":"bytes32"}],"stateMutability":"view"},{"type":"function","name":"publicInputsOfPositionAndSalaryProofs","inputs":[{"name":"nullifierHash","type":"bytes32","internalType":"bytes32"}],"outputs":[{"name":"jwtPubkeyModulusLimbs","type":"string","internalType":"string"},{"name":"domain","type":"string","internalType":"string"},{"name":"position","type":"string","internalType":"string"},{"name":"salary","type":"string","internalType":"string"},{"name":"workLifeBalance","type":"uint8","internalType":"uint8"},{"name":"cultureValues","type":"uint8","internalType":"uint8"},{"name":"careerGrowth","type":"uint8","internalType":"uint8"},{"name":"compensationBenefits","type":"uint8","internalType":"uint8"},{"name":"leadershipQuality","type":"uint8","internalType":"uint8"},{"name":"operationalEfficiency","type":"uint8","internalType":"uint8"},{"name":"nullifierHash","type":"bytes32","internalType":"bytes32"}],"stateMutability":"view"},{"type":"function","name":"recordPublicInputsOfPositionAndSalaryProof","inputs":[{"name":"proof","type":"bytes","internalType":"bytes"},{"name":"publicInputs","type":"bytes32[]","internalType":"bytes32[]"},{"name":"rsaSignatureLength","type":"uint16","internalType":"uint16"},{"name":"separatedPublicInputs","type":"tuple","internalType":"struct DataType.PublicInput","components":[{"name":"jwtPubkeyModulusLimbs","type":"string","internalType":"string"},{"name":"domain","type":"string","internalType":"string"},{"name":"position","type":"string","internalType":"string"},{"name":"salary","type":"string","internalType":"string"},{"name":"workLifeBalance","type":"uint8","internalType":"uint8"},{"name":"cultureValues","type":"uint8","internalType":"uint8"},{"name":"careerGrowth","type":"uint8","internalType":"uint8"},{"name":"compensationBenefits","type":"uint8","internalType":"uint8"},{"name":"leadershipQuality","type":"uint8","internalType":"uint8"},{"name":"operationalEfficiency","type":"uint8","internalType":"uint8"},{"name":"nullifierHash","type":"bytes32","internalType":"bytes32"}]}],"outputs":[{"name":"","type":"bool","internalType":"bool"}],"stateMutability":"nonpayable"}],"bytecode":{"object":"0x6080604052348015600e575f5ffd5b5060405161183e38038061183e833981016040819052602b916070565b5f80546001600160a01b039384166001600160a01b0319918216179091556001805492909316911617905560a3565b6001600160a01b0381168114606d575f5ffd5b50565b5f5f604083850312156080575f5ffd5b8251608981605a565b6020840151909250609881605a565b809150509250929050565b61178e806100b05f395ff3fe608060405234801561000f575f5ffd5b5060043610610085575f3560e01c80632997e86b116100585780632997e86b1461010e5780635296953114610140578063a7aed60c14610153578063e9b4fbe714610166575f5ffd5b8063043ab03b146100895780630a0732fc146100bc5780630e3a0679146100cf578063217fc3f8146100e4575b5f5ffd5b61009c610097366004610ff6565b610186565b6040516100b39b9a9998979695949392919061103b565b60405180910390f35b61009c6100ca366004610ff6565b610406565b6100d7610434565b6040516100b391906111df565b5f546100f6906001600160a01b031681565b6040516001600160a01b0390911681526020016100b3565b61013061011c366004610ff6565b60036020525f908152604090205460ff1681565b60405190151581526020016100b3565b6001546100f6906001600160a01b031681565b6101306101613660046114af565b610733565b610179610174366004610ff6565b610c76565b6040516100b39190611580565b60026020525f90815260409020805481906101a090611599565b80601f01602080910402602001604051908101604052809291908181526020018280546101cc90611599565b80156102175780601f106101ee57610100808354040283529160200191610217565b820191905f5260205f20905b8154815290600101906020018083116101fa57829003601f168201915b50505050509080600101805461022c90611599565b80601f016020809104026020016040519081016040528092919081815260200182805461025890611599565b80156102a35780601f1061027a576101008083540402835291602001916102a3565b820191905f5260205f20905b81548152906001019060200180831161028657829003601f168201915b5050505050908060020180546102b890611599565b80601f01602080910402602001604051908101604052809291908181526020018280546102e490611599565b801561032f5780601f106103065761010080835404028352916020019161032f565b820191905f5260205f20905b81548152906001019060200180831161031257829003601f168201915b50505050509080600301805461034490611599565b80601f016020809104026020016040519081016040528092919081815260200182805461037090611599565b80156103bb5780601f10610392576101008083540402835291602001916103bb565b820191905f5260205f20905b81548152906001019060200180831161039e57829003601f168201915b5050506004840154600590940154929360ff8082169461010083048216945062010000830482169350630100000083048216926401000000008104831692600160281b90910416908b565b60048181548110610415575f80fd5b905f5260205f2090600602015f91509050805f0180546101a090611599565b60606004805480602002602001604051908101604052809291908181526020015f905b8282101561072a578382905f5260205f209060060201604051806101600160405290815f8201805461048890611599565b80601f01602080910402602001604051908101604052809291908181526020018280546104b490611599565b80156104ff5780601f106104d6576101008083540402835291602001916104ff565b820191905f5260205f20905b8154815290600101906020018083116104e257829003601f168201915b5050505050815260200160018201805461051890611599565b80601f016020809104026020016040519081016040528092919081815260200182805461054490611599565b801561058f5780601f106105665761010080835404028352916020019161058f565b820191905f5260205f20905b81548152906001019060200180831161057257829003601f168201915b505050505081526020016002820180546105a890611599565b80601f01602080910402602001604051908101604052809291908181526020018280546105d490611599565b801561061f5780601f106105f65761010080835404028352916020019161061f565b820191905f5260205f20905b81548152906001019060200180831161060257829003601f168201915b5050505050815260200160038201805461063890611599565b80601f016020809104026020016040519081016040528092919081815260200182805461066490611599565b80156106af5780601f10610686576101008083540402835291602001916106af565b820191905f5260205f20905b81548152906001019060200180831161069257829003601f168201915b5050509183525050600482015460ff8082166020808501919091526101008304821660408501526201000083048216606085015263010000008304821660808501526401000000008304821660a0850152600160281b9092041660c083015260059092015460e0909101529082526001929092019101610457565b50505050905090565b5f8261ffff16600903610845575f8054604051634f12461b60e11b81526001600160a01b0390911690639e248c3690610776908b908b908b908b906004016115d1565b602060405180830381865afa158015610791573d5f5f3e3d5ffd5b505050506040513d601f19601f820116820180604052508101906107b59190611633565b90508061083f5760405162461bcd60e51b815260206004820152604760248201527f4120676976656e20706f736974696f6e20616e642073616c6172792070726f6f60448201527f662028313032342d62697420525341207369676e617475726529206973206e6f6064820152661d081d985b1a5960ca1b608482015260a4015b60405180910390fd5b50610993565b8261ffff1660120361094b57600154604051634f12461b60e11b81525f916001600160a01b031690639e248c3690610887908b908b908b908b906004016115d1565b602060405180830381865afa1580156108a2573d5f5f3e3d5ffd5b505050506040513d601f19601f820116820180604052508101906108c69190611633565b90508061083f5760405162461bcd60e51b815260206004820152604760248201527f4120676976656e20706f736974696f6e20616e642073616c6172792070726f6f60448201527f662028323034382d62697420525341207369676e617475726529206973206e6f6064820152661d081d985b1a5960ca1b608482015260a401610836565b60405162461bcd60e51b815260206004820181905260248201527f556e737570706f7274656420525341207369676e6174757265206c656e6774686044820152606401610836565b61099b610f9c565b8251815260208084015181830152604080850151818401526060808601519084015260808086015160ff9081169185019190915260a08087015182169085015260c08087015182169085015260e080870151821690850152610100808701518216908501526101208087015190911690840152610140808601519084018190525f9081526002909252902081518291908190610a37908261169e565b5060208201516001820190610a4c908261169e565b5060408201516002820190610a61908261169e565b5060608201516003820190610a76908261169e565b5060808201516004808301805460a086015160c087015160e0880151610100808a01516101208b015160ff908116600160281b0265ff000000000019928216640100000000029290921665ffff000000001994821663010000000263ff0000001996831662010000029690961663ffff00001997831690940261ffff1990981691909a16179590951793909316929092171716939093179290921790915561014092830151600590920191909155908201515f908152600360205260408120805460ff1916600190811790915582549081018355919052815182916006027f8a35acfbc15ff81a39ae7d344fd709f28e8600b4aa8c65c6b64bfe7fe36bd19b01908190610b83908261169e565b5060208201516001820190610b98908261169e565b5060408201516002820190610bad908261169e565b5060608201516003820190610bc2908261169e565b50608082015160048201805460a085015160c086015160e0870151610100808901516101208a015160ff908116600160281b0265ff000000000019928216640100000000029290921665ffff000000001994821663010000000263ff0000001996831662010000029690961663ffff00001997831690940261ffff19909816919099161795909517939093169290921717169290921791909117905561014090910151600590910155509695505050505050565b610c7e610f9c565b5f8281526003602052604090205460ff161515600114610ce05760405162461bcd60e51b815260206004820181905260248201527f4120676976656e206e756c6c69666965724861736820697320696e76616c69646044820152606401610836565b5f828152600260205260409081902081516101608101909252805482908290610d0890611599565b80601f0160208091040260200160405190810160405280929190818152602001828054610d3490611599565b8015610d7f5780601f10610d5657610100808354040283529160200191610d7f565b820191905f5260205f20905b815481529060010190602001808311610d6257829003601f168201915b50505050508152602001600182018054610d9890611599565b80601f0160208091040260200160405190810160405280929190818152602001828054610dc490611599565b8015610e0f5780601f10610de657610100808354040283529160200191610e0f565b820191905f5260205f20905b815481529060010190602001808311610df257829003601f168201915b50505050508152602001600282018054610e2890611599565b80601f0160208091040260200160405190810160405280929190818152602001828054610e5490611599565b8015610e9f5780601f10610e7657610100808354040283529160200191610e9f565b820191905f5260205f20905b815481529060010190602001808311610e8257829003601f168201915b50505050508152602001600382018054610eb890611599565b80601f0160208091040260200160405190810160405280929190818152602001828054610ee490611599565b8015610f2f5780601f10610f0657610100808354040283529160200191610f2f565b820191905f5260205f20905b815481529060010190602001808311610f1257829003601f168201915b5050509183525050600482015460ff80821660208401526101008204811660408401526201000082048116606084015263010000008204811660808401526401000000008204811660a0840152600160281b9091041660c082015260059091015460e09091015292915050565b6040805161016081018252606080825260208201819052918101829052818101919091525f6080820181905260a0820181905260c0820181905260e082018190526101008201819052610120820181905261014082015290565b5f60208284031215611006575f5ffd5b5035919050565b5f81518084528060208401602086015e5f602082860101526020601f19601f83011685010191505092915050565b61016081525f61104f61016083018e61100d565b8281036020840152611061818e61100d565b90508281036040840152611075818d61100d565b90508281036060840152611089818c61100d565b91505060ff8916608083015260ff881660a083015260ff871660c08301526110b660e083018760ff169052565b60ff851661010083015260ff8416610120830152826101408301529c9b505050505050505050505050565b5f815161016084526110f761016085018261100d565b905060208301518482036020860152611110828261100d565b9150506040830151848203604086015261112a828261100d565b91505060608301518482036060860152611144828261100d565b915050608083015161115b608086018260ff169052565b5060a083015161117060a086018260ff169052565b5060c083015161118560c086018260ff169052565b5060e083015161119a60e086018260ff169052565b506101008301516111b161010086018260ff169052565b506101208301516111c861012086018260ff169052565b506101408301516101408501528091505092915050565b5f602082016020835280845180835260408501915060408160051b8601019250602086015f5b8281101561123657603f198786030184526112218583516110e1565b94506020938401939190910190600101611205565b50929695505050505050565b5f5f83601f840112611252575f5ffd5b5081356001600160401b03811115611268575f5ffd5b6020830191508360208260051b8501011115611282575f5ffd5b9250929050565b803561ffff8116811461129a575f5ffd5b919050565b634e487b7160e01b5f52604160045260245ffd5b60405161016081016001600160401b03811182821017156112d6576112d661129f565b60405290565b5f82601f8301126112eb575f5ffd5b81356001600160401b038111156113045761130461129f565b604051601f8201601f19908116603f011681016001600160401b03811182821017156113325761133261129f565b604052818152838201602001851015611349575f5ffd5b816020850160208301375f918101602001919091529392505050565b803560ff8116811461129a575f5ffd5b5f6101608284031215611386575f5ffd5b61138e6112b3565b905081356001600160401b038111156113a5575f5ffd5b6113b1848285016112dc565b82525060208201356001600160401b038111156113cc575f5ffd5b6113d8848285016112dc565b60208301525060408201356001600160401b038111156113f6575f5ffd5b611402848285016112dc565b60408301525060608201356001600160401b03811115611420575f5ffd5b61142c848285016112dc565b60608301525061143e60808301611365565b608082015261144f60a08301611365565b60a082015261146060c08301611365565b60c082015261147160e08301611365565b60e08201526114836101008301611365565b6101008201526114966101208301611365565b6101208201526101409182013591810191909152919050565b5f5f5f5f5f5f608087890312156114c4575f5ffd5b86356001600160401b038111156114d9575f5ffd5b8701601f810189136114e9575f5ffd5b80356001600160401b038111156114fe575f5ffd5b89602082840101111561150f575f5ffd5b6020918201975095508701356001600160401b0381111561152e575f5ffd5b61153a89828a01611242565b909550935061154d905060408801611289565b915060608701356001600160401b03811115611567575f5ffd5b61157389828a01611375565b9150509295509295509295565b602081525f61159260208301846110e1565b9392505050565b600181811c908216806115ad57607f821691505b6020821081036115cb57634e487b7160e01b5f52602260045260245ffd5b50919050565b60408152836040820152838560608301375f60608583018101829052601f19601f8701168301838103820160208501529081018490526001600160fb1b0384111561161a575f5ffd5b8360051b80866080840137016080019695505050505050565b5f60208284031215611643575f5ffd5b81518015158114611592575f5ffd5b601f82111561169957805f5260205f20601f840160051c810160208510156116775750805b601f840160051c820191505b81811015611696575f8155600101611683565b50505b505050565b81516001600160401b038111156116b7576116b761129f565b6116cb816116c58454611599565b84611652565b6020601f8211600181146116fd575f83156116e65750848201515b5f19600385901b1c1916600184901b178455611696565b5f84815260208120601f198516915b8281101561172c578785015182556020948501946001909201910161170c565b508482101561174957868401515f19600387901b60f8161c191681555b50505050600190811b0190555056fea26469706673582212206d83127643564aeb6c217ca94adc9f58aa13d4dff739330457aa2287c84d314c64736f6c634300081c0033","linkReferences":{}},"methodIdentifiers":{"getPublicInputsOfAllProofs()":"0e3a0679","getPublicInputsOfPositionAndSalaryProof(bytes32)":"e9b4fbe7","nullifiers(bytes32)":"2997e86b","positionAndSalaryProof1024Verifier()":"217fc3f8","positionAndSalaryProof2048Verifier()":"52969531","publicInputsOfAllProofs(uint256)":"0a0732fc","publicInputsOfPositionAndSalaryProofs(bytes32)":"043ab03b","recordPublicInputsOfPositionAndSalaryProof(bytes,bytes32[],uint16,(string,string,string,string,uint8,uint8,uint8,uint8,uint8,uint8,bytes32))":"a7aed60c"},"id":0}